:100000000C9434000C943E000C943E000C943E0082
:100010000C943E000C943E000C943E000C943E0068
:100020000C943E000C943E000C943E000C943E0058
:100030000C943E000C943E000C943E000C943E0048
:100040000C943E000C943E000C943E000C943E0038
:100050000C943E000C943E000C943E000C943E0028
:100060000C943E000C943E0011241FBECFEFD4E050
:10007000DEBFCDBF0E9450000C946C000C940000B9
:100080008FE08AB98BB18F608BB9089529E236E988
:1000900040E84A95F1F73A95E1F72A95D1F70895A6
:1000A0000E9440008BB18F608BB958982FEF88E089
:1000B0009DE3215080409040E1F700C000008BB1EB
:1000C0008F608BB92FEF88E09DE3215080409040F6
:0C00D000E1F700C00000E6CFF894FFCF7D
:00000001FF
