:1000000000800020BD010000C14C00008D4C0000AC
:100010008D4C00008D4C00008D4C00008D4C00007C
:100020008D4C00008D4C00008D4C0000C14C000038
:10003000C14C00008D4C0000B96000007D610000E3
:10004000C14C0000C14C0000C14C0000C14C00007C
:10005000C14C0000C14C0000C14C0000C14C00006C
:10006000C14C0000C14C0000C14C0000C14C00005C
:10007000C14C0000C14C0000C14C0000C14C00004C
:10008000C14C0000C14C0000C14C0000C14C00003C
:10009000C14C0000C14C0000C14C0000C14C00002C
:1000A000C14C0000C14C0000C14C0000C14C00001C
:1000B000C14C0000C14C0000C14C0000C14C00000C
:1000C000C14C0000C14C0000C14C0000C14C0000FC
:1000D000C14C0000C14C0000C14C0000C14C0000EC
:1000E000C14C0000C14C0000C14C0000C14C0000DC
:1000F000C14C0000FD500000C14C0000195200002E
:10010000C14C000035530000C14C0000C14C000040
:10011000C14C0000C14C0000C14C0000C14C0000AB
:10012000C14C0000C14C0000C14C0000C14C00009B
:10013000C14C0000C14C0000C14C0000C14C00008B
:10014000C14C0000C14C0000C14C0000C14C00007B
:10015000696200007D62000091620000A5620000FB
:10016000C14C0000E5550000C14C0000C14C00002E
:10017000C14C0000C14C0000C14C0000C14C00004B
:10018000C14C0000C14C0000C14C0000C14C00003B
:10019000C14C0000C14C0000C14C0000C14C00002B
:1001A000C14C0000C14C0000C14C0000C14C00001B
:1001B000C14C0000C14C0000F55F0000564B4CF2F2
:1001C000205210B51A804DF628121A8000BF00BFC9
:1001D00004F07AFD514B4FF010621A60504A9A6059
:1001E000504ADA60504A136813F4807301BF4F49D4
:1001F0000B604FF4A85313604D4B4E491A7810070B
:1002000042BF1A7842F008021A704B4B2A221A7029
:100210004A4A4B4B8B4204D252F8040F43F8040B6A
:10022000F8E7484B484A0021934202D243F8041BA6
:10023000FAE7464A4648002350F8231042F82310B4
:1002400001336F2BF8D1434B434A802103F8011B44
:100250009342FBD1414B3D4A1A60414B8A221A70AE
:10026000A3F5805324225A70A0221A709A7991071C
:10027000FCD59A79D206FCD43A4A937903F00C0360
:10028000082B384BF9D103221A7140225A719A79FE
:100290009406FCD533498A79324B5006FBD5324A55
:1002A000324911600221516020221A709A7902F0BD
:1002B0000C020C2AFAD12E4B2E4A1A602E4B4BF60A
:1002C0007F321A6000225A60072243F8042C2B4A1E
:1002D000C3F80C2D62B604F0AFFE144B1B68DA07AE
:1002E00005D5274804F02EFD264B274A1A60274BD8
:1002F0001B785B0609D5234C234B22689A4204D114
:100300001F4804F01FFD0023236006F03FF804F0AF
:10031000E1FC04F04FFBFEE70E2005403080044076
:10032000823F04000100002B10D0034014D0034092
:1003300002D007406494FF1F00E007409C86010044
:100340004088FF1F6494FF1FF0DAFF1F0082FF1F29
:100350000000000000E400E05FE400E008ED00E0E1
:100360000050064000400640448004400000131145
:1003700004800440C010050014E000E000002020CC
:1003800000DD68501CE00340A5C3945A00F007400C
:10039000FFFFFFFFFFFFFFFFFFFFFFFFFFFFFFFF6D
:1003A000FFFFFFFFFFFFFFFFFFFFFFFFFFFFFFFF5D
:1003B000FFFFFFFFFFFFFFFFFFFFFFFFFFFFFFFF4D
:1003C000FFFFFFFFFFFFFFFFFFFFFFFFFFFFFFFF3D
:1003D000FFFFFFFFFFFFFFFFFFFFFFFFFFFFFFFF2D
:1003E000FFFFFFFFFFFFFFFFFFFFFFFFFFFFFFFF1D
:1003F000FFFFFFFFFFFFFFFFFFFFFFFFFFFFFFFF0D
:10040000FFFFFFFFFFFFFFFFFFFFFFFFDEF9FFFF23
:1004100010B5054C237833B9044B13B10448AFF33E
:1004200000800123237010BD6494FF1F00000000B2
:10043000A0860100084B10B51BB108490848AFF36E
:1004400000800848036803B910BD074B002BFBD0A0
:10045000BDE81040184700BF000000006894FF1F6F
:10046000A08601006494FF1F000000002DE9F74FF3
:10047000036B06689DF830700191B60C4FEA934902
:100480004FF0000841F2345C013FFFB2FF2F00F053
:10049000A28090E8104001997444046011F8014B67
:1004A00001910CB1C0F80080B0F912400568B4F5B4
:1004B000605F6DDAB0F90CA005EB0A4ABAEB030AEB
:1004C00007D56FEA0A0AF24528BFF246AEEB5A0A90
:1004D00004E0F24528BFF2460EEB5A0A13EB0A037A
:1004E00010D34FEA1A2AB3FBFAFAE2450AD8846914
:1004F000013404F00104846100EBC404C4F820A0BA
:10050000C4F82490AE450FD94FEA1E2EB5FBFEFE6F
:10051000E64509D88469013404F00104846100EBE4
:10052000C404C4F820E06662AE0C4FEA9349D0F8E8
:1005300024A006EB0904A4F58044BAF1000F10D002
:10054000D0F820E0264931F91EB00EF5807E0AFB76
:100550000BFAE64504EBEA34C0F820E088BFC0F8A7
:100560002480D0F82CA0BAF1000F10D0D0F828E0E9
:100570001B4931F91EB00EF5807E0AFB0BFAE645E9
:1005800004EBEA34C0F828E088BFC0F82C8014805F
:10059000B0F91240B4F5505F1BDDB4F5605FBCBF2D
:1005A000A4F55054A4014FEA15650E49B2F900A014
:1005B00031F91550B4BFA4B24FF6FF74C4F57F4EA5
:1005C0000EF1FF0E6D100EFB0AFE04FB05E4241471
:1005D0001480023258E7036303B0BDE8F08F00BF18
:1005E00024200100221E01002DE9F04FDFF89CC1FC
:1005F0009DF82450DFF898E1002741F23456013D80
:10060000EDB2FF2D00F0BE8090E818002344036097
:1006100011F8013B03B10760B0F91230D0F8008047
:10062000B3F5605F80F28C8044451BD9B0F90C3083
:10063000B0F9109003634FEA142AB8FBFAFAB245F6
:10064000C0F83480A0F838900CD88369013303F0E7
:100650000103836100EBC30309F58049C3F820A0BF
:10066000C3F82490036B002B41D0013B0363CBB94B
:100670004FEA142B446BB4FBFBFBB3454FEA9843A2
:1006800037D88469B0F938A0013404F0010400EBD4
:10069000C4099A448461CAF10004C9F820B0C9F8B9
:1006A000244026E0B8F1804F1CD908F1404A240AC2
:1006B000BAFBF4FAB2454FEA98430FD88469B0F90F
:1006C00038B0013404F0010400EBC4099B44846198
:1006D000CBF10004C9F820A0C9F82440A3F50053C9
:1006E000076308E0B0F93840274B1B1B03E04FEAD3
:1006F0009843A3F50053D0F82490B9F1000F0CD023
:10070000046A3EF914A004F5807409FB0AF9B442A6
:1007100003EBE933046288BF4762D0F82C90B9F14B
:10072000000F0CD0846A3EF914A004F5807409FB14
:100730000AF9B44203EBE933846288BFC7621380CD
:10074000B0F91230B3F5505F1ADDB3F5605FBCBF8E
:10075000A3F550539B014FEA1868B4BF9BB24FF604
:10076000FF733CF91840B2F90090C3F57F4808F1D7
:10077000FF08641008FB09F803FB04831B141380B3
:1007800002323CE7BDE8F08F00E0FFFF221E0100CF
:10079000242001002DE9F74F8E46B0F90C109DF88A
:1007A0003070DFF88081B1F5FD4FC4BF4FF4FD41DB
:1007B0008181B0F90C60C6F500463104019141F227
:1007C000345C0021013FFFB2FF2F00F0A28090E8CF
:1007D00030002C4404602BB1A54294BF00240124B6
:1007E0001C7001331EF8014B04B10160B0F91240D6
:1007F0000568B4F5605F64DA90F81C904468B9F15C
:10080000000F17D0019EAE422AD8C6EB0509240A74
:10081000B9FBF4F9E1450BD88469013404F0010413
:10082000846100EBC40447F6FF76C4F8209066624A
:10083000017715E0A54213D24FEA1429B5FBF9F967
:10084000E1450AD88469344E013404F0010484611E
:1008500000EBC404C4F8209066624FF001040477F2
:10086000047F2E4ED0F824A043F6FF79002C08BF59
:10087000B1464C46BAF1000F0ED0D0F8209038F9AE
:1008800019B009F580790AFB0BFAE14504EBEA346B
:10089000C0F8209088BF4162D0F82CA0BAF1000FB8
:1008A0000ED0D0F8289038F919B009F580790AFBF4
:1008B0000BFAE14504EBEA34C0F8289088BFC16226
:1008C0001480B0F91240B4F5505F1DDDB4F5605FDF
:1008D000BCBFA4F55054A4014FEA1565104EB2F9FF
:1008E00000A036F91550B4BFA4B24FF6FF74C4F59A
:1008F0007F4909F1FF096D1009FB0AF904FB05990D
:100900004FEA2949A2F800901488644222F8024B69
:1009100058E703B0BDE8F08F0180FFFF01C0FFFF83
:10092000221E010024200100F0B543689DF81470D8
:100930004FEA530E0368013FFFB2FF2F1CD011F89E
:10094000014B002C18BF002373441D0C45F3C03429
:10095000734484EA45051C0CA5F5004644F3C035F4
:1009600085EA4404A4F5004446F34E0544F34E04DE
:100970002C4422F8024BDEE70360F0BD2DE9F04184
:10098000DFF844E09DF8184090E808010EF1020CF1
:10099000013CE4B2FF2C13D011F8015B0DB94344C4
:1009A00000E000231E0E3EF916503CF91660771B3E
:1009B000C3F30F267E4305EB264522F8025BE7E7EB
:1009C0000360BDE8F08100BF221E01002DE9F74F52
:1009D0004368B0F90EA0DFF8D4809DF83070056848
:1009E0004FEA530EB0F90C30CAEB030347F6FF741D
:1009F00094FBF7F4634301939C4608F10209013F1D
:100A0000FFB2FF2F4CD00AEBEC334FF4F0446343BA
:100A100011F8014B002C18BF002575442E0C46F32D
:100A2000C03484EA4604DB1303F50063A4F50044F4
:100A300014FB03F4C4F3CF3484F400444FEA242BB2
:100A4000754438F91B6039F91BB0E4B2C6EB0B0BE7
:100A500004FB0BF44FEA154B06EB24264BF3C03492
:100A600084EA4B04A4F5004414FB03F3C3F3CF332F
:100A700083F400431C1246F34E06168038F914B076
:100A800039F91440DBB2CBEB040463430BEB2323B3
:100A900043F34E031E44019B22F8026B9C44AEE7D5
:100AA0008389C381056003B0BDE8F08F924E0100D9
:100AB0002DE9F04F4368B0F90EB00468DFF804A1E7
:100AC000DFF804C185B05B080193B0F90C309DF8E4
:100AD00038600391CBEB030347F6FF7595FBF6F502
:100AE0006B4302939E46013EF6B2FF2E60D00399FF
:100AF0000BEBEE334FF4F0456B4311F8015B0391C0
:100B0000002D019D2D4918BF00242C44270EDB1316
:100B10003AF9175031F917802949C5EB0808C4F391
:100B20000F2707FB08F703F5006305EB274717FBC3
:100B300003F7C7F3CF3787F400473D12FFB23CF904
:100B4000158031F915900199C8EB090907FB09F7E0
:100B500008EB27270C4447F34E054FEA1468174962
:100B600015803AF9187031F918901549C7EB090941
:100B7000C4F30F2808FB09F807EB284818FB03F318
:100B8000C3F3CF3383F400431F12DBB23CF9178069
:100B900031F91790C8EB090903FB09F308EB23238C
:100BA00043F34E032B4422F8023B029B9E449AE7F8
:100BB0008389C381046005B0BDE8F08F241E010065
:100BC0009A540100221E010098540100B0F90C3023
:100BD0002DE9F047C3F5FF43B0F91240274F9DF8C8
:100BE00020507F3304EB63039C019B12132B28BF1F
:100BF0001323DE1C0133132B28BF1323033357F8B1
:100C0000266057F823E0A4B24FF0000C013DEDB28E
:100C1000FF2D30D090E888003B44036011F8013B81
:100C20000BB1C0F800C003684FEA136A4FEA4A09E3
:100C300009F1020936F91A70C3F30F2836F90930A1
:100C40003EF90990DB1B08FB03F307EB23473EF952
:100C50001A30C3EB090908FB09F8BFB203EB2843BC
:100C60001BB20FFA87F8C8EB0303634307EB234378
:100C700022F8023BCAE7BDE8F08700BFB88AFF1F31
:100C800010B544F2FF539942A8BF1946A1F580411F
:100C90000020002903DA01F5C0610130F9E70A11EB
:100CA000074C54F82230013201F00F0154F8222091
:100CB000D21A514303EB211121FA00F010BD00BFFD
:100CC000981601002DE9F14F90F814B09DF828A076
:100CD00099461C4B904653F83B5003EBCB02437DA7
:100CE00056685B4504460F4608D024220021183080
:100CF00005F034FE0023236084F815B0B4F912B077
:100D000020465946FFF7BCFFBBF58C4F606002DD03
:100D10004FF48C4303E0BBF1000F01DA0023638240
:100D2000701016F0010F1CBF23585D59CDF828A094
:100D30004B46424639462044AC4601B0BDE8F04F30
:100D4000604700BF4488FF1F2DE9F74F9146B0F977
:100D50000C704268B0F822B090F82040DFF894A000
:100D60004FEA920EBF11C7F500774FEA8E05026871
:100D7000C0F804E0BFB20195013BDBB2FF2B31D0DC
:100D800011F8015B002D18BF00224FF0000C9046B7
:100D900066465F45F0440FD8B0F90E50C5F3072BF7
:100DA0004FEA4B0484EA186424EA0B04C5F3462591
:100DB0002C44E4B24FF0000B5AF82C500CF1010C0B
:100DC0000BF1010BBCF1040F05FB04661FFA8BFB52
:100DD000DFD13612019DA6F5DC46303E2A4429F8C3
:100DE000026BC9E780F82040A0F822B0026003B08F
:100DF000BDE8F08F547100002DE9F04FB0F91240BA
:100E0000B0F90E5004F14006B54202DC403CA54268
:100E100000DA4582B0F91240454EB0F90CE004EB1F
:100E200084041225C4F350346C433519345D4FEA01
:100E30004E0E04FB0EFE05EB1E443E4D6778A47873
:100E400004EBC41404EB050C446807EBC7172F44EC
:100E50004FEA54091FFA8EFE013BDBB2FF2B65D02F
:100E600004684C44046011F8014B0CB10024046088
:100E700006684FEA566808F1010B17F8085017F892
:100E80000B40C6F3570A641B2D020AFB04F4A5F5B8
:100E9000004505EB24451CF808401CF80B80C4EB0A
:100EA000080824020AFB08FAA4F50044ADB204EBDA
:100EB0002A440FFA84FA4E442CB2C4EB0A044FEAD7
:100EC000566A0AF1010B06600EFB04F405EB24449C
:100ED00017F80B8017F80A50C6F35706C5EB080839
:100EE0002D0206FB08F8A5F5004505EB28481CF87F
:100EF0000A501CF80BA0C5EB0A0A2D0206FB0AF6E5
:100F0000A5F500451FFA88F805EB26452EB20FFA25
:100F100088F5751B0EFB05F508EB254844F34E04D8
:100F200048F34E08A04422F8028B95E7BDE8F08F05
:100F3000EA6F0000989500002DE9F04F8BB0824ECB
:100F40000492B0F90C200193B0F90E300391C2EB7A
:100F500002121111C3EB03131D114901C3F3C43372
:100F6000C2F3C43289B26D0103EB0213774C0091D6
:100F7000ADB2013300215A1E92B206AFB25C02EB51
:100F8000C21222447A50F25C0F4402EBC2120831C2
:100F90002244103310297A609BB2ECD14368DDF80B
:100FA0001880DDF81CE0DDF820C0099F5B08029383
:100FB000009BC3F57F46FF36019B013BDBB2FF2B55
:100FC000019300F0BD800368029A1344039A036002
:100FD00012F8013B03920BB100230360036802681F
:100FE0004FEA536B0BF1010A18F80B3018F80A108E
:100FF0001EF80B40C2F35709C91A1A0209FB01F186
:10100000A2F500421CF80A3002EB21421CF80B103A
:101010005B1A090209FB03F3A1F5004101EB23432D
:1010200017F80B101EF80AB0C4EB0B0B240209FBD7
:101030000BFBA4F5004492B204EB2B4424B20FFA4C
:1010400082FBCBEB04046C4302EB244417F80A2028
:10105000521A090209FB02F9A1F500419BB201EB0A
:1010600029491AB20FFA89F9C2EB090905FB09F9F6
:1010700003EB2942009B12B224B25A4306FB04231D
:1010800005930268029B13444FEA536B0BF1010A6C
:10109000036018F80B2018F80A101EF80B40C3F371
:1010A0005709891A130209FB01F1A3F5004303EB69
:1010B00021431CF80A201CF80B10521A090209FBE4
:1010C00002F2A1F5004101EB224217F80B101EF8C5
:1010D0000AB0C4EB0B0B240209FB0BFBA4F5004484
:1010E0009BB204EB2B4424B20FFA83FBCBEB04043A
:1010F0006C4303EB244417F80A305B1A090209FB1E
:1011000003F9A1F5004192B201EB294913B20FFA9C
:1011100089F9C3EB090905FB09F9009B02EB294991
:101120000FFA89F903FB09F924B2059B06FB049425
:10113000641404EB6344049B23F8024B04933BE7E1
:101140000BB0BDE8F08F00BF9E59010098950000DC
:101150002DE9F04F93B0774E069303460590406912
:10116000B3F90C30089200EB400000EB4300831011
:101170000E93059B0699704D1A4683105361B2F980
:1011800010305B124FF4004292FBF1F20599F35CD0
:1011900009680992C0F3053003EBC313059A079160
:1011A0000599B2F90E40496803EB050C335C03EB7B
:1011B000C3132B444908B4F5005F01934FEAC402FE
:1011C000039180F2BB8092B20A92C2F57F420699E7
:1011D00007980491FF324FF0000B0292049A013AF3
:1011E000D2B2FF2A049200F0AF82420E02F0FE0853
:1011F00002F1010A1CF808701CF80A50019B3F021A
:1012000087F400410F911CF80210C0F357096D1AC2
:101210000C0209FB05F5A4F5004404EB25449D5C94
:10122000039A1044099A5F464FEA506BBE180BF0C0
:10123000FE020C921CF802201CF80B10120282F421
:1012400000420D920BF101020B921CF80220C0F338
:10125000570E521A09020EFB02F2A1F5004101EBF2
:10126000224213F80B10039B1844099BB6B203EB00
:10127000060B019B13F80AA0C5EB0A0A2D0209FB15
:101280000AF9A5F5004505EB294913F80850BDF901
:101290003C800F9B2D02A5F500452DB2A4B2C8EBF2
:1012A00005050FFA84FA0FFA89F97D4303EB25450A
:1012B000CAEB0909029B07FB09F92DB25D4304EB58
:1012C00029440A9B24B203FB04540B9B019DED5C53
:1012D0000C9B6D1A09020EFB05FEA1F5004192B2AE
:1012E00001EB2E4E15B20FFA8EFEC5EB0E057543BF
:1012F00002EB2545019ABDF93410D25C0D9B120218
:10130000A2F5004212B2521A724303EB2242029B30
:1013100012B25A430A9B2DB203FB05252D14089BDC
:1013200005EB24456D1023F8025B1FFA8BFB089335
:1013300054E700BF9E6D0000989500003044B4F55E
:10134000804F417801EBC11101EB050302930E9B25
:101350004FEA83118BB2049380F2BB80069B0A9301
:1013600000230B9393B2C3F57F48079E0D9308F1BA
:10137000FF080A9B5A1ED3B2FF2B0A9300F0E481A8
:10138000720E02F1010A1CF802101CF80A00C6F3E2
:101390005709401A090209FB00F0A1F5004101EBD1
:1013A00020418BB21093019B995C13F80A40029B79
:1013B0009D5C039B099A1E440B9B641A080209FB5F
:1013C00004F49A18A0F5004093B200EB2440740E88
:1013D0000F93631C1193C6F357030C93631C1CF803
:1013E00004201CF803700C9BBF1A5F431102019B81
:1013F000019AA1F5004101EB27411F5D631C80B2FA
:1014000012F803B00C9BC7EB0B0B03FB0BFB029B0F
:1014100013F80AA01C5D049BC5EB0A0A2D0209FB08
:101420000AF9A5F5004A0AEB294A0FFA80FE0FFADD
:101430008AFABDF94050CEEB0A0A03FB0AFA0B9B6D
:10144000C5EB0E0E03FB0EFE109B119D03EB2E4E03
:1014500000EB2A400D9B0FFA8EFE08FB0EFE00B239
:1014600003FB00E0029B5D5D0C9B3A022D1BA2F585
:101470000042240203FB05FE02EB2B42A4F50045CB
:1014800092B205EB2E4517B2049B2DB289B2ED1B2B
:101490005D430CB20F9B3F1B5F4301EB274702EB01
:1014A00025420D9B3FB212B208FB07F703FB027205
:1014B000039B4FEA224E1E440F9A099B9D18ABB224
:1014C0000EEB20400B93089B401023F8020B08936F
:1014D0004FE7B4F5C04F079F80F2AF80069B09939A
:1014E00093B2C3F57F4A0A930AF1FF0A099B5A1E79
:1014F000D3B2FF2B099300F027814FEA576C019B71
:101500000CF1010813F80C2013F80800029BC7F334
:10151000570B13F80C50019B0CF0FE0C801A1102B3
:101520000BFB00F0A1F5004101EB204113F80C008A
:10153000039B019A1F444FEA576E019B13F80E401C
:101540000EF101030B93D65C029BC7F35709361BC0
:10155000220213F80E40019B0EF0FE0E09FB06F668
:10156000A2F5004202EB264213F80E60039B1F44D3
:10157000029B13F80880049BC5EB08082D020BFBA7
:1015800008F8A5F5004589B205EB28480FFA81FB5C
:101590000FFA88F8CBEB080803FB08F8029B13F856
:1015A0000C50049B00022D0280F40040A5F500457C
:1015B0000FFA80FC2DB2CCEB05055D4300EB254511
:1015C0000A9B0B982DB25D43029B185C049B001B89
:1015D000240209FB00F9A4F5004492B204EB294966
:1015E00010B20FFA89F9C0EB090903FB09F9029B54
:1015F00013F80E00049B3602000286F40046A0F5A4
:10160000004000B234B2001B584306EB20400A9B56
:1016100002EB294200B2584301EB284112B209B251
:101620000AFB02020AFB01511514089B05EB214538
:101630006D1023F8025B089358E792B2C2F57F4918
:10164000DDF8188009F1FF0908F1FF385FFA88F822
:10165000B8F1FF0F78D04FEA576C0CF0FE0B019BEE
:101660000CF0F80C13F80B6013F80C00039B1F44EC
:101670004FEA576E0EF0FE0A019B0EF0F80E13F8BB
:101680000A1013F80E40039B1F44029B13F80B50E3
:10169000049B36022D0286F40046A5F500450FFA9C
:1016A00086FB2DB2CBEB05055D43029B13F80CC006
:1016B000049B00024FEA0C2C80F40040ACF5004C77
:1016C00006EB25460FFA8CFC05B2C5EB0C0C03FBB0
:1016D0000CFC029B13F80AA0049B09024FEA0A2A99
:1016E00081F40041AAF5004A00EB2C4C0FFA8AFA6B
:1016F00008B2C0EB0A0A03FB0AFA029B13F80E00B9
:10170000049B2402000284F40044A0F5004000B2CF
:1017100025B2401B584304EB204001EB2A4100B2A4
:101720000FFA8CFC09B2504336B202FB0CFC09FBE9
:10173000010109FB06C60914089B01EB2646761039
:1017400023F8026B08937FE7039B069A07995B00D7
:1017500002FB0313059A13600E9B5B10138213B0F8
:10176000BDE8F08F2DE9F04F8DB00446099300F1EC
:10177000F0030093C37E164600F59E679BB14FF4BD
:1017800080620021009805F0E9F84FF480520021B2
:10179000384605F0E3F8D022002104F1200005F0DE
:1017A000DDF80023E37694F90D30B4F90E90656A04
:1017B000D4F828C0E06ADFF804E2C3F1AC039BB2BE
:1017C0000793238C0293638C0893A3685B084FEA0A
:1017D0006929A3F5003309F106024FEA132909FB31
:1017E00002F9714AC9EB0301914201D8F14503D9CD
:1017F0005B084FEA5909F5E7331D0193029BB4F9E1
:1018000030E003F50063A3EB19430A93029B03F551
:101810000053A3EB11430B931FFA89F30593C3F510
:101820007F43FF3303938BB20693C3F57F43FF33AC
:101830004FF0000804930299089B099A1FFA88F94F
:1018400009EB01064FEA4801C9B24B448A429BB2F8
:10185000B6B200F0968094E8060011440A9A21601E
:1018600009EB020A0B9A1FFA8AFA91441FFA89F1CE
:10187000CAF309090AF1FF3A009ACAF3090A12F9F0
:1018800009B012F90A90059AC1F30B0A013902FB5B
:1018900009F9C1F30B01039A02FB0B9917F90AB07E
:1018A000069A17F901A04FEA294944F266614FEA06
:1018B000092902FB0AFA4D43049A43F2B86101FB7D
:1018C00009555910013302FB0BAA5B10374A32F855
:1018D000133032F81110009AED1319444FEA2A4AD6
:1018E0004FEA0A2A079B05EB6101514401FB03FB08
:1018F0004FEA6B1383EAE37BABEBE37B2C4B5B455B
:10190000A8BF5B465B12DFF8B8B03BF813304B431F
:10191000DB13C6F30B0B591BC6F30906CAEB030313
:101920001B12091207F80B10935541F6991303FB8C
:1019300009F941F6243303FB0CF31B1303EBE939DC
:101940001C4B434309EB23391B4BC0EB0900984266
:1019500005DB47F6FF739842A8BF184600E018461B
:10196000019B86444FEA6E0E23F804EC0FFA80FECA
:1019700023F802EC0433604608F101080193CC46D9
:1019800059E7B3F5B46FA8BF4FF4B463C6F30B06C1
:10199000268463846562C4F828C0E062A4F830E05D
:1019A0000DB0BDE8F08F00BF0000FF0F147B0100F9
:1019B000FFFF010071F4FFFF0180FFFF0000FF0344
:1019C00082640100034A04491368044800FB0310C1
:1019D00010607047B48AFF1F5FF36E3C0D661900FC
:1019E0002DE9F04F8DB0B0F820B00A93B0F90C306B
:1019F000C66BD0F84C80D0F844A0D0F85090AE4FD1
:101A000003F580630B93436A0293836A0693836CA6
:101A10000793C36A0193036B0893036C0393436BAF
:101A20000493836B0993131D044605930A9B002BB3
:101A300000F02581FFF7C6FF0B9AC0F316039A4208
:101A400040F29780C0F30B05A5F50065B4F90EA030
:101A5000238BDFF86CE22DB205EB45010AFB01F1A7
:101A600003F5C06202EB614212B222EAE272520452
:101A70004FEA12694FEA490808F1020837F81910CD
:101A800038F807603EF81990120A92B2761A564357
:101A900001EB1646B6B247F67C714E43F613079635
:101AA00038F80E60C9EB060605FB0AF5564303F548
:101AB000186202EBE53212B222EAE27252044FEAF5
:101AC000126B09EB16464FEA4B0909F10209C0F304
:101AD000CC3C37F81B5039F807803EF81BB0ACF50A
:101AE000805C0AFB0CFC120A03F5F26392B2C5EBB0
:101AF000080803EB2C4302FB08F81BB205EB18485F
:101B000023EAE37339F80E505B044FEA136ACBEB18
:101B1000050555434FEA4A0C0BEB15450CF1020C39
:101B2000AAB203923CF8079037F81A201B0A9BB21E
:101B3000C2EB090903FB09F902EB19493EF81A2027
:101B40003CF80EA0C2EB0A0A1FFA88F81FFA89F9BE
:101B500003FB0AFA01FB08F801FB09F902EB1A4A38
:101B6000B6B24FEAE8384FEAE9391FFA8AFA4FF677
:101B7000FF7B03B20BFB03F31B144FF6FB4202FB8C
:101B80000BFB002B4FEA1B4B09DD039903FB06F20D
:101B9000594303FB0AF3121409141B140CE00399B4
:101BA0005B4203FB06F2594303FB0AF312140914C8
:101BB0001B14524249425B4207980546029868430B
:101BC000069D02EBE03047F6FA626A43A0EBE23290
:101BD0003A48824205DB47F6FF708242A8BF0246C0
:101BE00000E0364A0198089D08FB00F001EBE03167
:101BF00047F6FA606843A1EBE0313048814205DBEB
:101C000047F6FF708142A8BF014600E02B490498C7
:101C1000099D09FB00F003EBE03347F6FA606843E7
:101C2000A3EBE030254B984205DB47F6FF73984263
:101C3000A8BF184600E02148204D0B181344AB42C2
:101C400005DB47F6FF7E7345A8BF734600E01B4BDC
:101C5000059D1BB225F8043C25F8023C0A9B023B7B
:101C6000DBB20A932B4604330593049B0993019B33
:101C70000893029B0490019106930292D6E6029B80
:101C80006362069BA362079BA364019BE362089BBC
:101C90002363039B2364049B6363099BA4F820B024
:101CA000E663C4F84C80A363C4F844A0C4F8509021
:101CB0000DB0BDE8F08F00BFF48201000180FFFF8E
:101CC0008A72010008B5FFF77DFE001408BDFFFF12
:101CD0002DE9F74FB0F90E50B0F90C809A46AD11CE
:101CE000C37EC83504461746ADB243B3A0230026D1
:101CF000A0F84430C676FFF7E5FF594B013000F0FD
:101D0000070006214FEA053901FB003104F11C0CE4
:101D100004F1340E32460B7809FB03F34CF8043F10
:101D20000132CB784EF8043F032A01F10101F2D1D0
:101D3000052840F6FF7398BF0023A4F84630B4F896
:101D400044201AB1013AA4F844202AE0454B4FEA56
:101D50002831062000FB0131C8F30B0E04F11C09E9
:101D600004F1340C0E46CEF58058B37908780EFB9A
:101D700003F308FB00336B4349F8043F707ACB78D8
:101D80000EFB00F008FB030001320013032A4CF89D
:101D9000040F01F1010106F10106E6D10023A4F8C8
:101DA0004630B4F84610DFF8C890DFF8C88007EB7B
:101DB0004A0A574501914FD094E82800E26AA06B87
:101DC0001D44236A25601344E3621B0E03F0F003F5
:101DD0000343226B39F91360636AE06B1344236396
:101DE0001B0E03F0F0030343626B39F913B0A36ACF
:101DF000206C134463631B0E03F0F00303431A4A81
:101E000032F913200092FFF75DFF2368019901FB6F
:101E10000030636898420AD3009A93445E442D0EC2
:101E200036B2C5F1FF0516FB05F52DB203E000251E
:101E3000E56225636563A5F50045ADB22A120B483E
:101E400038F9123030F91220EDB2D21A554303EBB3
:101E5000252527F8025BACE703B0BDE8F08F00BF93
:101E6000767200008B6F0000867F0000201A010050
:101E7000F48001001E1A01002DE9F04F89B00546DB
:101E80000293C37E0692B0F820A0446A00F1F009E4
:101E90003BB14FF480520021484604F05FFD00231F
:101EA000EB76AE684D4B7608A6F580369E4201D99A
:101EB0007608FBE7330C0393B5F90C30B5F90E2027
:101EC000B5F928805B10C3F5DA4360339BB2049305
:101ED000B5F91830A3F5005303EB6203DB1103D40B
:101EE0007F2BA8BF7F2300E000233D4AB6B232F823
:101EF00013300193C6F57F4B00270BF1FF0BB9B2EE
:101F00000AEB01039BB20593029B0791BB4258D099
:101F100095E80C0013442B60FFF7D4FE049B039953
:101F20005843C21346F266635A430AF580535B1A5C
:101F3000079919448BB2C3F30A01013BC3F30A03A7
:101F400039F9110039F91310264B71430BFB0011BD
:101F5000D213491402F5CC420C445C436632C2EB06
:101F6000243403F6662363431B1303F5B3431E486F
:101F70001A33834205DB47F6FF7E7345A8BF7346DD
:101F800000E003465C4302EBE434844205DB47F6A1
:101F9000FF739C42A8BF1C4600E0134C059BC3F393
:101FA0000A0329F81340019B5C43C3F5805008FBEA
:101FB0000048069B48F30F3823F817800C4601377A
:101FC0009DE7029BC5F828809A44CAF30A0AA5F83F
:101FD00020A06C6209B0BDE8F08F00BF0000FF07D1
:101FE000147A0100CDF0FFFF0180FFFF2DE9F04FD3
:101FF00091B004460793038C019300F59E6302930E
:1020000000F1F0030393C37E0C92D0F828A0D0F81F
:102010002C901BB9B0F822B0466A0EE04FF4805203
:102020000021029804F09AFC00264FF480620021FF
:10203000039804F093FCB346E676A368B4F90E80E7
:102040006F495B00A3F500334FEAA82808F130027E
:102050004FEA132808FB02F86A4AC8EB03039342CD
:1020600001D8884503D95B084FEA5808F7E71A0CEE
:1020700009924FEA18420A92B4F90C2062491211EF
:10208000C2F50362043292B20B92B4F91820D21155
:102090009BB231F812200592079A0893C3F57F434B
:1020A000571EFF33FFB200210493019B0F9188B2AA
:1020B0001A1893B2FF2F069300F08F8094E80C005B
:1020C00013442360019B099A0A9903F500539B1A54
:1020D000019A034402F500629BB2521A0244C3F310
:1020E0000B00013B0299C3F30B030856CD56089B26
:1020F00003995D43049B92B203FB0055C2F30903AD
:10210000013AC2F3090211F903E08B561FFA88F075
:10211000C0F57F4C0CF1FF0C43430CFB0E331B143A
:102120005B020E93394B33F81B2052000D92FFF7E0
:10213000C9FD0B9B0D9A0F995843059B2D14C3F5B0
:10214000805E06FB0EF66D0203FB156640F6D77E39
:1021500036130EFB09F90013CAEB060A069B50431F
:102160000AEB29394FEA690E02EBE032C3F3090C9E
:10217000CEEB0202039B521203F80C200E9B002BA5
:1021800005DB4FF6FF729342A8BF134600E0002321
:102190001B121F48069A30F91330C2F30B029E44FB
:1021A000029B4FEA6E2E03F802E01A4B6D109D421F
:1021B00005DB47F6FF739D42A8BF1D4600E01D46A4
:1021C0000C9B23F8115007F001039B44013F1FFAB9
:1021D0008BFB0131FFB2B24667E7019B079A66624B
:1021E000BBF5347F134428BF4FF4347B2384A4F819
:1021F00022B0C4F828A0C4F82C9011B0BDE8F08F2C
:102200000000FF030000FF0F147A01009E5A010036
:10221000201C01000180FFFF2DE9F04F9346B0F92B
:10222000182051495204140E074631F81400B7F92A
:102230000E80D7F820900231120A31F8146091B262
:10224000361A01FB06F2B7F90C1049040D0E00EB2B
:1022500012466800454A023032F81540825A090A8F
:1022600089B2121B4A4385B004EB1242404C92B231
:10227000009234F81520045B7D6AA41A4C43B8F52B
:10228000804F02EB1444A4B2B4BFC246C8F5FF4A63
:10229000B6B2B9BFCAF580424FF000080AF17F0A12
:1022A000A8F58048A8BF00220BEB4303A6423149A2
:1022B0000193D2BF47F6FF74C4EBC43494FBF6F429
:1022C000019B03919B45029248D0FFF7FBFC009BCA
:1022D0000399029A03FB09FE4FEAEE3ECEEB600043
:1022E00006FB09FE05EBEE358D4205DB47F6FF7E6A
:1022F0007545A8BF754600E01E4D401B00FB06FE5D
:1023000009EBEE3909FB0AFC02FB05FE4FEAAC3C87
:102310000CEBAE3E00FB08F00EEBA030884205DB74
:1023200047F6FF7E7045A8BF704600E01148124B8B
:102330006043C0F3CF3080F400404FEA202CC0B29D
:1023400033F91CE0023333F91CC0CEEB0C0C00FB5C
:102350000CF00EEB20202BF8020BB1E77D62C7F8E2
:10236000209005B0BDE8F08F8E76010088830000D4
:10237000904C01000180FFFF5C7900002DE9F04FD7
:10238000B0F90C50D0F82490D0F82880076BDFF813
:10239000C0C187B0E91101F57E41D8310193C36A0C
:1023A000009301FB01F35B0C0293B0F91830044673
:1023B00058044FEA106B4FEA4B0A0AF1020A3CF844
:1023C0001B603AF80CE0000A80B2C6EB0E0E00FB70
:1023D0000EFE06EB1E46B6B24E43360C0496594E20
:1023E00036F81BE03AF806A0DFF85CB1CEEB0A0A3B
:1023F00000FB0AF00EEB104080B20390B4F90E001F
:10240000A0F5804003EB60031BB283F30E035B0473
:102410004FEA136A4FEA4A0E0EF1020E3CF81A0018
:102420003EF80CC01B0A9BB2C0EB0C0C03FB0CFC6F
:1024300000EB1C4080B24843010C059136F81A109D
:102440003EF80660761A5E43AD1001EB1646C5F500
:10245000FF55B6B21F3502F1040A019B002B66D06E
:10246000FFF730FC4010002805DD039B4343704319
:102470001B14001407E0039B4042434370431B14AA
:1024800000145B424042049A02FB09F203EBE23281
:10249000029B03FB08F8A2EBE8325A4505DB47F63E
:1024A000FF739A42A8BF1A4600E0274A059B00998D
:1024B0004B4300EBE330029B5F43A0EBE730584512
:1024C00005DB47F6FF739842A8BF184600E01E4898
:1024D000131803FB05F103EB61311B4B994205DB3C
:1024E00047F6FF739942A8BF194600E01649174BFB
:1024F000DFF860E0A1F5004189B20F12C9B233F9EB
:1025000017303EF91770FF1A794303EB2121019B25
:10251000009F0090023B09B2DBB22AF8041C2AF8A3
:10252000021CC84601930AF1040A914695E7009BF4
:10253000C4F82490C4F82880E362276307B0BDE89C
:10254000F08F00BF8A7201000180FFFF5C790000FC
:10255000F48201005E7900002DE9F84FDFF8A091C8
:10256000044693461E46824600F140080027DAF8EA
:102570002830B3F1807F02D8DAF82C302BBBCAF8B0
:102580002C70FFF71FFA80B2B0F5804F1DD2B4F95E
:102590000C30DB1139F81330CAF82870DB00CAF8A8
:1025A0002C306368CAF82430FFF78CFBB4F90E3086
:1025B0006268DAF8241058434FEA12224CBF03161F
:1025C000C31502FB0310CAF824000AF1100AC24521
:1025D000CDD14848484B871C47F6FF7E013EF6B2F6
:1025E000FF2E00F08480216A626AA56A0A44E16ACB
:1025F00022624FEA126C2944A16230F91C8037F93B
:102600001CA0A56BC8EB0A0A090CC2F30F2202FB3F
:102610000AF208EB224233F81180216B12B208FB58
:1026200002FA626B0A44E16B22634FEA12682944A2
:10263000A16330F918C037F91890A56CCCEB0909E3
:10264000C2F30F22090C02FB09F90CEB2949626C59
:1026500033F811C0216C0A44E16C22640FFA89F945
:1026600029440CFB09FC4FEA1269A1644FEA6C4C47
:102670000CEB6A4830F919C037F91990A56DCCEB0D
:102680000909090CC2F30F2202FB09F20CEB2242EA
:1026900033F811C0216D12B20CFB02F208EB624C50
:1026A000626D0A44E16D22654FEA12692944A16511
:1026B00030F9198037F91990C2F30F22C8EB0909D4
:1026C000090C02FB09F208EB224233F8118012B226
:1026D00008FB02F20CEB624212F5004F03DB72457D
:1026E000A8BF724600E0054A2BF8022B76E7BDE84A
:1026F000F88F00BF221E0100908B00000080FFFFBA
:10270000945001002DE9F04FC17E85B004469246F9
:1027100059B10021816201620A2020864FF0FF300A
:10272000606247F6FF70E062E176B4F90C606268BF
:10273000B4F90E700192C6F5FF467F36B61006F565
:1027400061624E4ED4F800B00292FF1007F5806728
:102750000AEB430806F10209C24500F08980019B9B
:10276000A06A9B4488B14FEA1B65CBF30F2E36F964
:10277000151039F915506D1A0EFB05F501EB2545BD
:102780002DB205EB4505AD1000E00546216A029B20
:1027900001318B4221622BD2B4F830E00EF1FF3EC2
:1027A0000FFA8EF323860BBB616A354AB0FA80F0CC
:1027B00001314009A06288086162105C490001F0A3
:1027C000060140FA01F101F00301022000FA01F1D3
:1027D000013989B20F2903BF642121864FF0FF31EF
:1027E000218604BFA36261624FF0804B0021216209
:1027F000FFF768FAE16A01EBA00001120029B8BFF7
:102800004942B942E06205DBB1F57A5FA8BF4FF4F7
:102810007A5100E039460391FFF754FA0399CBF35C
:10282000875E484336F91EE0C01300FB0EF105EB4E
:10283000E13514498D4205DB47F6FF718D42A8BF93
:102840000D4600E00D4605FB05F18813B4F90E10A6
:10285000414305EBE1350B498D4205DB47F6FF713E
:102860008D42A8BF0D4600E00D462AF8025B73E7D3
:10287000C4F800B005B0BDE8F08F00BF221E010013
:102880005E7B00000180FFFF2DE9F04F8BB0C17E21
:10289000019343685B000546436079B3817E013153
:1028A000C9B2022988BF00218176817E01EB8100B7
:1028B0001F4605EBC00000248462B7F5000F866A4E
:1028C00002DD7F10741CF7E74FF480643441282642
:1028D00006FB015100260C62013CC46258004E62A6
:1028E0000864CB63B5F90E000C6A00EB40004010A1
:1028F00000F500506043000C4863EE76A97E282066
:1029000000FB015102F1040A086C984294BFC863AD
:10291000CB63B5F90C40B5F944909B0BB4F5804FEF
:10292000C3F58053A8BFA1001BB2ACBFC1F50031F5
:102930004FF6FF71B3F5807FB8BF4FF48073B4F5E5
:10294000804FBDBFC4F580445C4344F38F34002402
:10295000C4F5004302910693019B002B00F08F8089
:1029600005F178032E4605F1F00703934FF00008B8
:10297000736B73B1013B736337F913B0FFF7A2F9BF
:10298000032300FB03B0736B801027F8130080440F
:1029900055E0B16BF36BB26AF06A0B441632B36365
:1029A000D340023303400493736A049A934232D0B3
:1029B000F16A37F913B009935A1C0A4007EB430137
:1029C000059137F9121008920791FEF7FBFF029B61
:1029D000089A80B28342099B14D307991BEB010B21
:1029E00043BFCBF1000B4FEA6B0BCBF1000B4FEA6F
:1029F0006B0B24B106990BFB01FB4FEAEB3B0599EE
:102A0000A1F800B00BB11346CFE7336AB7F9001055
:102A100027F81310F7E77362B16BB36A21FA03F377
:102A2000990DC3F38F1337F9112007EB4101B1F969
:102A30000200801A434302EB234308FA83F8039B06
:102A40002836B34207F6020792D10F4B984505DBB3
:102A500047F6FF739845A8BF984600E09846019B4B
:102A6000C1444FEA6909023B2AF8049CDBB20FFA21
:102A700088F92AF8029C01930AF1040A6CE7A5F888
:102A800044900BB0BDE8F08F0180FFFF10B543F616
:102A9000FF739942A8BF1946A1F58041002011F5A6
:102AA000C06100F10100FAD40A11074C54F8223039
:102AB000013201F00F0154F82220D21A514303EBE6
:102AC000211121FA00F010BD981601002DE9F04FF8
:102AD0008946B0F90C10B0F818A00568C76A066BF3
:102AE000A1F5804185B004460AEBA10109B29846E0
:102AF000436801939346FFF7C9FFB4F90E100290A3
:102B0000A1F580410AEBA10109B22046FFF7BEFF03
:102B10000390304805F1804500F1020A08F1FF38C2
:102B20005FFA88F8B8F1FF0F4BD019F8013B13B9E1
:102B3000019B1D4402E0002637463546029B1F4498
:102B4000039B1E442B0E30F913E03AF91310C5F322
:102B50000F23CEEB010103FB01F2390E0EEB2242F3
:102B600030F911303AF911C0C7F30F2EC3EB0C0C3A
:102B70000EFB0CF14FEA166E03EB21413AF91EC031
:102B800030F91E30C6F30F2EC3EB0C0C0EFB0CFEFF
:102B900011FB02F203EB2E4E12FB2EF303F1004366
:102BA0001B0C1A120C4931F912C00231DBB231F997
:102BB0001220CCEB020253430CEB23232BF8023BF5
:102BC000ACE705F140452560E762266305B0BDE846
:102BD000F08F00BF221E01001E1A01002DE9F04FE8
:102BE000B0F90C5005F5806595B06D431E466D1229
:102BF000038B029104460392A5EB850A4FF000096E
:102C000003EB2A481FFA88F80FFA88F1204601934F
:102C1000FFF73CFF08F10101834609B22046FFF7A8
:102C200035FF1FFA8AF2CBEB000050430DAA0BEBE5
:102C3000204042F8290009F10109B9F1070FAA441F
:102C4000019BDDD1E37E5BB104F11C0504F1340886
:102C5000FEF7B8FE45F8040F4545F9D10023E376A9
:102C6000B4F90E30B4F9182042F6A9218B42A3F52D
:102C70002A53A3F12A0306DC18214B4302EB63130A
:102C800023EAE3730BE00C214B4312EB631305D4EF
:102C900047F6FF729342A8BF134600E000235B048F
:102CA000180E5249256D31F8102002311B0A31F8F7
:102CB00010109BB2891A4B4302EB13431FFA83F99E
:102CC0004B4BE16C1B8804930D9B05930E9B069365
:102CD0000F9B0793109B0893119B0993129B0A93D8
:102CE000139B0B93002047F6FF7C013EF6B2FF2EAC
:102CF00077D0029A12F8013B0292002B57D122683A
:102D0000059B079F03EB020E226A069BC4F800E0B6
:102D10001A44636A226207EB0308A36A089FC4F897
:102D20002480FB18A3620193099FE36A07EB030A5F
:102D3000236B0A9FC4F82CA007EB030BD20C636B28
:102D40000B9FC4F830B002EBDE423B44A2F5E042F8
:102D5000019F636302EBD84202EBD74202EBDA42F7
:102D600002EBDB4202EBD343A3F500439BB24FEAF5
:102D7000232E204A204F32F91E2037F91EE0DBB205
:102D8000C2EB0E0E03FB0EF302EB2322049B03FBAC
:102D900005F809FB05F301EBE331184B12B2994238
:102DA000A2EBE8320ADB6145A8BF614607E020627A
:102DB0006062A062E06220636063A0E70F49521A7C
:102DC00002FB09F305EBE3350C4B9A4203DB62454A
:102DD000A8BF624600E0094A039B23F8022B039335
:102DE00083E7E164256515B0BDE8F08F8E760100BC
:102DF000888300005C7900005E7900000180FFFF9D
:102E00002DE9F04F87B09846B0F90C300292028B52
:102E10000191A3F5006302EB63031BB243F6FF715C
:102E200099420446A8BF1946FFF730FE94F81CE00B
:102E3000236AA66ADFF890A18146AEF1040E5FFA1C
:102E40008EFE4FEA993203920EF0010204920EF0C8
:102E50000202D2B2606A059208F1FF385FFA88F880
:102E6000B8F1FF0F00F0A38022686168019D0A4459
:102E7000226015F8012B01950AB94B4407E00026A2
:102E80004FF0010384F82C30266030463346226828
:102E90004A4F914288BF4A4B4FEA410188BF53F8DD
:102EA0002E30B1EB420F81BF94F82C10444881F0D2
:102EB000010184F82C1088BF04994FEA136588BF7C
:102EC000023137F9157088BF50F821003AF9151012
:102ED000C3F30F25A7EB010705FB07F701EB274716
:102EE00098BF484439B20091344F010E3AF911505D
:102EF00037F911C0C0F30F21C5EB0C0C01FB0CF12D
:102F000005EB2141B4F90E50C2F3CF3C6FEA0C0B34
:102F1000B5F5804FA8BF8CEAE27209B21FFA8BFBAD
:102F200094F82CC0B8BF6FEA124201FB0BF192B2C9
:102F30000914BCF1000F00D04942BDF80CC0214F6C
:102F400001FB0CFC06EB2C46BE4205DB47F6FF7C82
:102F50006645A8BF664600E01A4E059F27B1009F50
:102F600057433A1409B210E0009F07F500477A432F
:102F7000BEF1010F4FEA2242A2F5004208BF8919B3
:102F800012B214BF31B241F34F01B5F5804FA8BF63
:102F9000ED43AD00ADB2C5F57F47FF37694302FB96
:102FA0000711029A091422F8021B029254E72362C5
:102FB0006062A66207B0BDE8F08F00BF241E01006A
:102FC000B87200000180FFFF221E01002DE9F74FBB
:102FD0000F46B0F90C100192044649109846FFF7CD
:102FE00055FDB4F90E10206249102046FFF74EFD42
:102FF000DFF8DC9060624FF0000C08F1FF385FFAF8
:1030000088F8B8F1FF0F59D0236861680B4423603A
:1030100017F8013B0BB1C4F800C0E06A236A294AE3
:10302000266B256800EB030E4FEA1E63C4F82CE004
:1030300039F9130032F91330626AA9421644266343
:103040002FD81B1ACEF30F2E4FEA166B03FB0EFE82
:103050001C4B39F91B1033F91B301B4A5B1AC6F3A2
:103060000F264FEA156A5E43184B32F81A2033F8E0
:103070001A3000EB2E4E9B1AC5F30F254EF34E0E61
:1030800001EB26465D430EF5C04E46F38D0602EB7E
:103090001542B644C2F34E0202FB0EFE4FEAEE3E6C
:1030A00005E0C4F82CC0C4F830C04FF0000E019BFE
:1030B000AEF5C04E23F802EB01939EE703B0BDE8E6
:1030C000F08F00BF241E0100949100009691000033
:1030D000221E01002DE9F74F1E460F46038BB0F963
:1030E0000E10056A03F5C063A1F5804103EB610191
:1030F00009B204469046FFF7C9FCB4F91090DFF816
:103100009CE04308B4F90C000093C9EB000347F6B8
:10311000FF7090FBF6F0584302460EF1020C013EA0
:10312000F6B2FF2E34D009EBE233019363681946FF
:1031300023681944216017F8013B13B10023236071
:103140001D46009B01991D444FEA156A02443EF951
:103150001A303CF91AB0C5F30F2AC3EB0B0B0AFB6C
:103160000BFA03EB2A431BB25943236803EB810399
:10317000190EC3F30F233EF911A03CF911B0CAEBAD
:103180000B0B03FB0BF30AEB234A28F802ABC6E751
:10319000A3892382256203B0BDE8F08F221E0100BF
:1031A0002DE9F74F1F46B0F90E30B0F92450D0F892
:1031B00020808A46B0F91810A3F580435B10A1F572
:1031C00010561E44B600C6F5FF467F36002E044654
:1031D000914605DB47F6FF729642A8BF164600E00F
:1031E000002601F5C061194409B22046FFF74EFCE4
:1031F000B4F90CB0B4F910C0430800932548CCEBE7
:103200000B0347F6FF7B9BFBF7FB0BFB03FB5946CE
:1032100000F1020E013FFFB2FF2F33D00CEBE13380
:10322000019394E80C00134423601AF8013B13B196
:10323000002323609846009B984408EB85352A0EAE
:10324000C5F30F2530F912303EF91220D21A55433A
:1032500003EB25452BB2019D7543ED135D432368B8
:1032600003EB45031D0EC3F30F2330F915203EF980
:103270001550AD1A6B4302EB23452DB229F8025BC2
:103280005944C7E7A3892382A584C4F8208003B0EA
:10329000BDE8F08F221E01002DE9F74F1E460F46B4
:1032A000038BB0F90E1003F5C063A1F5804103EB69
:1032B000610109B204469046FFF7E8FBB4F910C07B
:1032C000DFF8B0E0B4F924A0256A430AB4F90C0091
:1032D0000193CCEB000347F6FF7090FBF6F05843E8
:1032E00002460EF10209013EF6B2FF2E3AD00CEB77
:1032F000E23300936368194623681944216017F884
:10330000013B13B1002323601D464FEA156A009963
:103310003EF91A3039F91AB0C5F30F2AC3EB0B0B7B
:103320000AFB0BFA03EB2A431BB25943236803EB56
:103330004103190EC3F30F233EF911A039F911B05F
:103340000199CAEB0B0B03FB0BF30AEB234A0FFAB1
:103350008AFA4FEA6A23813328F802AB01FB03554E
:103360000244C0E7A3892382A4F824A0256203B005
:10337000BDE8F08F221E01002DE9F04F1746C27EF6
:103380008DB00446984602B3816F00F12002964842
:1033900000234FF0804530F91360C2F88460B1F526
:1033A000806F03F10103B8BF1560062B02F1040220
:1033B000F1D10023E376B4F91860DFF844B21FFAC4
:1033C00086FA04F14809002524E0B0F90C30B3F581
:1033D000FA4FF0DAC3F5FF437F331B125B43DFF88C
:1033E00024C2DFF824E2DB1100F1740600F1A0052D
:1033F0003CF812003EF81210411A5943A0EBE111BB
:1034000056F8040F013241430914062A45F8041FF7
:10341000EED1D0E73BF81510514409B22046FFF732
:1034200035FB01354000062D49F8040FF2D1B4F9FF
:103430000E206E4BB4F9D050D4F8D8A0D4F8DC905C
:10344000A6F5C06606EBA20686F30F063604300E1C
:10345000360A33F81010023333F81000B3B2401AB2
:1034600003FB00F601EB1646B3B2019343F2572378
:103470009A42D4F8E06002DC02F580530AE0B2F52B
:10348000804F05DB4FF48043A2F58042029303E0B6
:103490004FF480430293002243F258235A4393137C
:1034A00003934FF4803393FBF8F305930023043721
:1034B0000093B8F1000F00F08380009B059A13443D
:1034C0000093FEF7FFFBB0F5804F05DC484B10F58D
:1034D000804FB8BF184601E04FF48040019B019A2D
:1034E000CAEB000058430AEBE03AC9EB0A03534326
:1034F00009EBE339C6EB090353434FF0000C06EB2D
:10350000E336A6466046DEF82030DEF84C10394A35
:1035100019440B0ECEF8201032F913B0DEF87820E3
:103520000492354A32F91330049ACBEB0303C1F30A
:103530000F215943DEF8A4309B1A009A5343049A92
:103540000BEB214B02EBE3330FFA8BFB03FB0BF38B
:1035500006AA1B1442F82C300CF1010CBCF1060F2A
:1035600018440EF1040ECED1079B039A09997343B8
:10357000C2F540521B125343069A714302EBA33229
:10358000039B49125943029B02EBA13258431B4B48
:1035900002EBA030984205DB47F6FF739842A8BFC4
:1035A000184600E0184605446D1027F8045CA8F1A1
:1035B000020805B227F8025C5FFA88F8043778E75A
:1035C000A4F8D050C4F8D8A0C4F8DC90C4F8E060E7
:1035D00004F1A003CC3453F8042F43F82C2C9C4264
:1035E000F9D10DB0BDE8F08F7C6D00008E76010042
:1035F00000C0FFFF221E0100241E01000180FFFF0A
:103600005E7200006A720000C87200002DE9F04F7F
:103610008FB004460493C37E90465BB100F11C0555
:1036200000F12C06FEF7CEF945F8040FAE42F9D1B1
:103630000023E376B4F90E20636805934FEA821AFB
:10364000A36A234900934FEAE22B9212E36A0193A3
:10365000013206205210266A676A238B1FFA8AFA03
:1036600000FB0B1B00FB02154FF000093BF8192073
:1036700035F819100293891A0AFB01F11A4402EB7A
:10368000214109B22046FFF701FA0BAA029B42F83A
:10369000290009F10109B9F1030FE7D1B4F90C30A0
:1036A0000C4D0D49CDF8088098129B012A5C2844E6
:1036B0001FFA83FB40780B9B06930C9B079302EB4E
:1036C000C21200EBC0100D9B08930A44014405E0B0
:1036D000046F00006A6F000098950000029B04339D
:1036E0000293049B002B00F08481059B07981E44E5
:1036F000069BFB180393009B034400930898019BCF
:103700000344700E451C9A46575D135C0995FF1AD9
:103710001D020B5C03980193C6F357094FEA506EE4
:1037200009FB07F7A5F500450EF1010805EB274554
:10373000039F12F80E00099BC7F3570C12F808708C
:103740003F1A00020CFB07F7A0F5004000EB2747EB
:1037500011F80E0011F803E0019BC3EB0E0E1B02E3
:1037600009FB0EF9A3F5004303EB294911F80830D2
:103770001B1A00020CFB03FCA0F50040BFB200EBDB
:103780002C4C3BB20FFA8CFCADB2C3EB0C0C009B83
:1037900000980FFA85FE0FFA89F9CEEB09094FEA76
:1037A000536E0EF101080BFB0CFC12F80E3007EB08
:1037B0002C47C0F3570C12F808000BFB09F9C01A8C
:1037C0001B0205EB29490CFB00F03DB2A3F50043B9
:1037D00005FA89F703EB204011F8085011F80E3074
:1037E000ED1A1B020CFB05FCA3F5004380B203EBB2
:1037F0002C4C0FFA8CFC05B2C5EB0C050BFB05F548
:1038000000EB254507FA85F54FEA5A6707F1010CE9
:10381000D35D12F80C00CAF3570EC01A1B020EFB40
:1038200000F0A3F5004303EB2040CB5D11F80C70D2
:10383000FF1A1B020EFB07FEA3F5004380B203EB49
:103840002E4E07B20FFA8EFEC7EB0E0E0BFB0EFECE
:1038500000EB2E40029B05FA80F0801023F8040C48
:10386000059B03981E44069B1F180098079B034462
:103870000093700E089B451C5344019312F805E019
:10388000135C09954FEA576C0CF10109C6F3570A0E
:10389000C3EB0E0E1D020AFB0EFEA5F500450B5CE8
:1038A00012F80C00039305EB2E4512F809E0099B72
:1038B000C7F35708C0EB0E0E000208FB0EFEA0F582
:1038C000004000EB2E4E11F80C0011F803C0039BD2
:1038D000C3EB0C0C1B020AFB0CFAA3F5004303EB31
:1038E0002A4A11F809301B1A000208FB03F8A0F558
:1038F00000401FFA8EFE00EB28480FFA8EF30FFAF5
:1039000088F8ADB2C3EB0808009B00980FFA85FC5D
:103910000FFA8AFACCEB0A0A4FEA536C0CF1010950
:103920000BFB08F812F80C300EEB284EC0F35708CA
:1039300012F809000BFB0AFAC01A1B0205EB2A4A0F
:1039400008FB00F00FFA8EF5A3F5004305FA8AFE96
:1039500003EB204011F8095011F80C30ED1A1B024E
:1039600008FB05F8A3F5004380B203EB28480FFAE3
:1039700088F805B2C5EB0805019B0BFB05F500EBCC
:1039800025450EFA85F54FEA536E019812F80E3070
:103990000EF10108C0F3570C12F80800C01A1B0200
:1039A0000CFB00F0A3F5004303EB204011F80E30B0
:1039B00011F808E0C3EB0E0E1B020CFB0EFCA3F586
:1039C000004380B203EB2C4C0FFA80FE0FFA8CFC04
:1039D000CEEB0C0C0BFB0CFC00EB2C40029B05FA15
:1039E00080F0801023F8020C049B023BDBB20493AE
:1039F00074E6009BA362019B26626762E3620FB0DC
:103A0000BDE8F08F2DE9F8439946B0F9123017461A
:103A1000B0F90E20884603F140018A42044602DCD8
:103A2000403B9A4200DA6282B4F91030B4F90C20BB
:103A300003F110018A4202DC103B9A4200DA228232
:103A4000E37E23B1FDF7BEFF0023E062E376656805
:103A50002668002D04DB6D0002D46D0058BF6D0098
:103A6000218AA1F5804109B22046FFF70FF8B4F989
:103A70001220DFF884E092120132012A4FEA40005E
:103A800008BF02224FF480336062B3FBF2F2C2F34C
:103A90004F0109F1FF395FFA89F9B9F1FF0F25D01C
:103AA00018F8013B0BB92E4400E00026AE4218D2B4
:103AB000A36A104E0EFB03F31E44236AA66203445E
:103AC0009842236284BFE36AA362A36A88BF20622C
:103AD000CE189BB2B3FBF2FC02FB1C33F31A238615
:103AE0002E46B4F9303027F8023BD2E72660BDE815
:103AF000F88300BF5FF36E3C0D6619002DE9F04FAF
:103B000087B098460368019343680293B0F90C109C
:103B1000036A0393038B0592A1F5FF41A3F5C063EC
:103B20007F39044603EBE10109B2FEF7AFFFE37E04
:103B300094F82C2013B10023A384E376DDF80CC0A5
:103B4000019FDFF8EC90C6460EF1FF3E5FFA8EFE55
:103B5000BEF1FF0F029B58D01CEB000C1F4423D377
:103B6000A38C01339BB213F00301A38415D1B3F5E9
:103B7000886F28BFA184A38C1F2B10D92F2B10D99D
:103B80003F2B10D9A26AB4F90E3002EB42021A445C
:103B90009310A362C2F3472206E0920804E00022D9
:103BA00002E0992200E0CC2207F18046330EC6F3F2
:103BB0000F2639F9131004911A4931F91330049979
:103BC0005B1A5E4301EB264319B202F0030A164B5F
:103BD00053F82A304FEA176B4B43124939F91B50FF
:103BE00031F91B60C7F30F21761B714305EB2141AF
:103BF0000E4D55F82A5009B26943C91301EBE3335E
:103C0000059921F8023B05919EE7019984F82C2043
:103C100008FB03132360039B08FB0030206207B0FE
:103C2000BDE8F08F241E0100A8720000C46F0000E0
:103C3000221E01002DE9F84FD0F8D4601746F51C7C
:103C40000B229846B5FBF2F302FB1353C0F8D430B5
:103C5000C37E04461BB9954228BF154610E000F10B
:103C600074034B4800254FF0804230F9151043F89B
:103C7000041F01350B2D43F8582CF6D10026E676AB
:103C800004EB8609DFF818A109F14809B54216D9F5
:103C9000238B3AF816101944B4F90E3016F0010FC0
:103CA00089B214BF01EBE311A1EBE31109B2204685
:103CB000FEF7ECFE400049F8040F0136E6E7B4F9E0
:103CC0000C30B3F5FA4F0BDBDFF8D8E0B4F9D010C5
:103CD000DFF8C89004370EF1020C47F6FF7A4AE08D
:103CE000C3F5FF437F331B125B432A4E2A4DDB1182
:103CF00004F17800002236F812E035F81210C1EB1A
:103D00000E015943AEEBE11E0168013201FB0EF1D9
:103D100009140B2A40F8041BEDD1D5E72A6AEB6C95
:103D200013441A0E2B623EF912B03CF91220C3F371
:103D30000F23CBEB020253430BEB234BAB6F0FFA7A
:103D40008BFB013603FB0BF30B2E00EB634005F1FD
:103D50000405E3D1484515DB5045A8BF5046014452
:103D6000491027F8041CA8F1020801B227F8021C28
:103D70005FFA88F80437B8F1000F05D00026254611
:103D80003046CBE70548EAE7A4F8D010BDE8F88F45
:103D9000D86E0000EE6E0000886D00000180FFFF0D
:103DA000D46F0000221E010010B5B1F5804FA8BFEE
:103DB0004FF48041A1F580410023002903DA01F589
:103DC000C0610133F9E70811084C54F82020013094
:103DD00001F00F0154F82000801A414302EB211139
:103DE000C3F10C0021FA00F010BD00BF9078010073
:103DF0002DE9F74FB0F90C109146B0F9182098460C
:103E0000A1F58041B0F9243002EB61010F2213FBD0
:103E1000021141F30F118184054600F1F00AFFF70A
:103E2000C3FFB0F1005F28BF4FF00050030C0193B7
:103E3000EB892B495B009BB21C1203F0FE0331F9A6
:103E400014200231C0F34E0031F914702C68BF1AEF
:103E50007B4302EB2323234A1FB2C4F30C04944692
:103E600047F6FF7E08F1FF385FFA88F8B8F1FF0FD8
:103E700031D0019BB9F90010E61AC6F30C0306F520
:103E80007F563F36C6F30C063AF913B03AF91630AE
:103E9000CBEB030343430BEBE33303FB07FB4E1076
:103EA00006EBEB36964203DB7645A8BF764600E08C
:103EB0000C4E2AF8146001EB43014910614503DB05
:103EC0007145A8BF714600E0064929F8021B01347C
:103ED000C4F30C04C6E72C6003B0BDE8F08F00BF4C
:103EE0001E1A01000180FFFF2DE9F04790F81C9099
:103EF0009846A9F10B03022B04460E46174610D82C
:103F0000B0F90E302548C3F30F21DBB230F8112091
:103F1000013130F9111010B2091A4B4302EB23237F
:103F2000E3811F4B03EBC90253F83950637FD2F88A
:103F300004A04B450BD0D022002104F1200002F058
:103F40000DFD002323600123E37684F81D90B4F96E
:103F5000189020464946FEF799FD49466060204684
:103F6000FFF722FFB9F58C4FA06002DD4FF48C43C0
:103F700003E0B9F1000F01DA002323834FEA6A005E
:103F80001AF0010F1CBF23585D593A46434631468B
:103F90002044AC46BDE8F047604700BF9C58010094
:103FA0008488FF1FF0B53220C2F34F379DF814E02C
:103FB000C3F34F364743C81906EB86043237013640
:103FC00074440F4406EB8606764430F9145037F9F2
:103FD000144030F9160037F91610D20092B2641B63
:103FE000091A544305EB24444A43A4B200EB22428D
:103FF00012B220B2DB00101A9BB2584304EB2040EF
:1040000000B2F0BD2DE9F04F8BB0DFF800B206939F
:1040100043685B0003934360B0F9EE300493039B65
:10402000190A0323B1FBF3F30893013B04460993F8
:1040300002F1040A069B002B00F0D5802768039B41
:104040000025FB1807932360214623460595D1F8E8
:10405000D400B0F1807F5AD21E6A5A6A654FB3F815
:1040600028803244160E1A623BF916E037F916C062
:10407000DE6ACEEB0C0CC2F30F2202FB0CF20EEB4D
:10408000224E1A6B3244DA62120E9E6B3BF912C05A
:104090009A8E02FB0CFCDA6B32449A63120E0FFA12
:1040A0008EFE08FB0EF93BF912E0B3F840205E6C7F
:1040B00002FB0EFE9A6C32445A644FEA2C4C120EEC
:1040C0000CEB294808EB2E4C3BF912E0B3F84C20DE
:1040D0001E6D02FB0EFE5A6D32441A65120E0CEB79
:1040E0002E4E3BF91260B3F8582072430EEB224E6D
:1040F000414E820B36F81260059A06FB0EFE02EB6B
:104100002E420592D1F8E0201044C1F8D4000435C5
:104110000C2D01F1040103F13C0398D1039B079A94
:10412000934240D994F8EC50B4F90E80B4F90C9055
:10413000C5EB051604EB86060027FBB24246079343
:1041400000932E494B462046FFF72CFF01462046A0
:10415000FEF79CFC079B2A49400070624246009390
:1041600020464B46FFF71EFF01370023052F308501
:10417000336206F10C06E0D104EB85030022C3F89C
:10418000D420089AB2F5C04F34BF4FF4C042099A08
:10419000C3F8E02001350323B5FBF3F303EB43033E
:1041A000ED1A84F8EC50059B164A1748A3F5004316
:1041B0009BB21912DBB232F9112030F91110891AB1
:1041C0004B4302EB2323049A1BB21A4452102AF8E1
:1041D000042C069A2AF8023C023AD2B206920AF15C
:1041E000040A049326E7BDF81030A4F8EE300BB0B3
:1041F000BDE8F08F241E0100886A0100DE6D00001A
:10420000647100001E1A0100201A0100221E010024
:104210002DE9F74F99460023A0F86830A0F8A430A4
:10422000A0F8E03003894A4E044603F5C063A0F8C5
:104230006E3017460238254604F1020E30F9023F6F
:104240004FEA232C0CF1010C5A124FEA6C0C36F990
:10425000122036F91CC01B02C2EB0C0C9BB203FBF4
:104260000CF3B4F808C00CF5C06C624402EB2343B5
:104270007045A5F8AA3005F13C05DFD104F584436B
:104280004FEA69051B78062B0CBF0023022384F834
:10429000703084F8AC3084F8E8305FFA85FA04F1C5
:1042A00009000023DAB2924509D901EB430256789E
:1042B00011F81320324300F8012F0133F2E76D00AB
:1042C00004F10A0B07EB050804F1240604F15C0075
:1042D000002342465946CDF800A0FCF7F3FC3544D4
:1042E00004F19800002332465946CDF800A0FCF7AF
:1042F000E9FC04F1D4005946CDF800A000232A4679
:10430000FCF7E0FC1348002147F6FF74CBB2994557
:104310001BD94FEA610E36F91E2038F91E3002EB28
:104320008202D21002EB630235F91E3003EB8303E5
:1043300002EBE303834203DBA342A8BF234600E072
:10434000044B27F811300131E0E703B0BDE8F08FEE
:10435000D47200000180FFFFF7B50446B0F900E019
:10436000A0F868E01D46072380F87030B0F9080017
:1043700084F8AC3094F90330A4F86E000344A4F838
:10438000A4E0A4F8AA3004F15C000F4600230095D5
:104390001646FCF797FC04F1240204F198000095FE
:1043A00000233946FCF78EFC2234013DEDB2FF2D8F
:1043B0000AD0B6F900305B10338034F9022F03EBDA
:1043C000620326F8023BF0E703B0F0BD2DE9F743A6
:1043D0001D46B0F90030A0F86830A0F8A430B0F95C
:1043E0000830A0F86E30A0F8AA3000270223044657
:1043F00080F8707080F8AC3088463B465C300095A1
:104400001646FCF75FFC3B4604F12402414604F1EA
:1044100098000095FCF756FCB4F90220B4F90600A8
:10442000131A47F6FF7292FBF5F25A4304F1220782
:1044300011464FF0940E013DEDB2FF2D18D037F923
:10444000028FB6F900C000EBE1335B009BB218FBB2
:104450000EF8C3F57F494FEA282809F1FF0903FB4D
:1044600008F309FB0C331B1426F8023B1144E2E766
:104470006388E38003B0BDE8F0832DE9F34104468F
:104480000027A0F8687002201D4684F87000B4F977
:10449000083084F8AC00B4F90000A4F86E3004F1E0
:1044A0000A0803EBA003A4F8A470A4F8AA3004F14E
:1044B0005C00434600951646FCF704FC3B4604F1BD
:1044C000240204F1980000954146FCF7FBFBB4F987
:1044D0000220B4F906E0CEEB020347F6FF7292FB2E
:1044E000F5F25A4304F122071046013DEDB2FF2DCB
:1044F00014D00EEBE0335B009BB237F9028FB6F9B4
:104500000010C3F57F4C0CF1FF0C03FB08F30CFB10
:1045100001331B1426F8023B1044E6E76388E3806E
:1045200002B0BDE8F0812DE9F3410446B0F908007E
:10453000B4F900C0A4F86E001E46A0F538556FF01F
:1045400005036B43A0F5205E03F5FF437F33AEEB1D
:10455000CE0E47F6FF7523EAE3730EF5FF4EAB422E
:104560000EF17F0E2EEAEE7EA8BF2B460CFB03F366
:10457000AE45A8BFAE46DB130CFB0EFCA4F86830BA
:1045800006234FEAEC3C84F8703005238846A4F8F3
:10459000A4C0A4F8AA0084F8AC3004F15C000023A5
:1045A00000961746FCF78EFB0023414604F1980065
:1045B000009604F12402FCF785FB95FBF6F5B4F9AF
:1045C0000610B4F902305B1A5D4304F1220E28464E
:1045D000013EF6B2FF2E14D001EBE0335B009BB23C
:1045E0003EF9028FB7F90020C3F57F4C0CF1FF0CA8
:1045F00003FB08F30CFB02331B1427F8023B28448F
:10460000E6E76388E38002B0BDE8F0812DE9F04F72
:104610001E46B0F90830A0F86E30A0F8AA30B0F904
:104620000030174642F6AA22934285B004468846D7
:104630004FF000050CDCA0F86850A0F8A45003224D
:1046400080F8AC5003EB430580F870206D0013E058
:1046500045F25552934211DCA3F52A532B3BA3EBB1
:104660008303A0F86850A0F8A450022280F8AC5050
:104670005D0080F87020013DADB20EE0A3F5AA43C5
:10468000563B03EB4303A0F86830022380F87030F8
:104690000423A0F8A45080F8AC3000233A464146E9
:1046A00004F15C000096FCF70DFB002304F12402EA
:1046B000414604F198000096FCF704FBB4F902208F
:1046C000B4F90830DFF8D4A0A3EB620303F580430C
:1046D00047F6FF7C6345A8BF634623EAE3735B04A8
:1046E000180E2B4A32F8101002321B0A32F8100052
:1046F0009AB2401A02FB00F301EB13439BB2C5F5DB
:104700007F49A26D039304F1220B09F1FF09013ED9
:10471000F6B2FF2E38D03BF9021FB7F90030B4F9DA
:104720000200694309FB03110B14039902939B1ABE
:104730004B4302EBE332174B9A4203DB6245A8BFBF
:10474000624600E0134A144902F5004E4FEA2E2853
:1047500040003AF9183031F918800299C3EB080883
:104760005FFA8EFE80B20EFB08FE03EB2E23C0F52F
:104770007F4E0EF1FF0E1BB201FB0EF100FB031189
:10478000091427F8021BC2E7A26505B0BDE8F08F47
:104790008E7601000180FFFF904A01008E4A0100E1
:1047A000F7B51C460389A0F86E30012380F87030FD
:1047B000B0F90030B0F902605B12032BB8BF0323DD
:1047C000A6F58046A0F868307310A0F86C305C3015
:1047D000009400231546FCF775FA1248B21003271F
:1047E000861C013CE4B2FF2C19D0B5F9003013FB54
:1047F000072303F50063C3F34F0383F400434FEA39
:10480000232EDBB230F91E1036F91EE0C1EB0E0E7E
:1048100003FB0EF301EB232325F8023BE1E703B092
:10482000F0BD00BF1E1A0100F7B504461D46002367
:10483000A0F868300089A4F86E0084F87030009504
:1048400004F15C0017460E46FCF73CFA2288A4F8F7
:104850001C21B4F92821B4F90230A4F81E31B2F5B4
:10486000345FB4F9083004DDB3F5345FC4BF9B187E
:104870005B10A4F82831022384F82C313A462B46E9
:10488000314604F5887003B0BDE8F040FFF72CBB5B
:1048900030B40588A0F81C51B0F92851B0F9024095
:1048A000A0F81E41B5F5345FB0F9084004DDB4F559
:1048B000345FC4BF64196410A0F8284100F5844433
:1048C00000F588702478083C047730BCFFF70CBBF7
:1048D00070B400F58445094C2D7804EBC50654F8F6
:1048E0003540756815F0010F4FEA65051CBF465944
:1048F00034592844A44670BC604700BF7C89FF1F20
:104900007047FFFF202902D112B2064B08E021298F
:1049100002D1D201044B03E0222902D1034BD20180
:104920001A807047ECD6FF1FBE94FF1FCA94FF1F6A
:1049300032B1044BC9011980034B012283F82B21AA
:10494000704700BFC894FF1FE894FF1F10B50446CE
:1049500001F068FC204610BD38B5114C114D23788C
:104960002A780BB1104B00E0104B33F812102B7863
:1049700001F5FF417F310133DBB2C1F30B11282078
:104980002B7000F04FFA2B781B2B07D9084A002315
:104990001370044A13702378DB43237038BD00BFC3
:1049A000BC94FF1FBD94FF1F8094FF1FEED6FF1F16
:1049B000B894FF1F2DE9F0471C22504C5048DFF8F7
:1049C0007C81DFF87CA10021002501F0C7FF1C22BB
:1049D00000214C4801F0C2FF2946242204F1740052
:1049E00088F8005001F0BAFF2946242204F1B000F3
:1049F000E56504F5844601F0B1FF2946D02204F5AF
:104A000098700127C4F8985001F0A8FF232340F2C2
:104A1000F3123D493D483370C4F8105184F82B71AE
:104A20002580658001F0B6FB39460D2000F0C8F9FD
:104A30003946172000F0C4F90C2000F093F9344BEC
:104A4000344A1A60344B354A354F1A604546DFF810
:104A5000F4804FF480533B80C1461C220021314832
:104A600001F07CFF20233049CAF800300A883B88D7
:104A70002B481BB212B29A421FBF038823810388BE
:104A80000B802A4B1A882A4B22801B886380B8F837
:104A900000301BB2242B07DCB8F800301B0405D40F
:104AA000B8F800301BB202E0252300E00023A9F88B
:104AB0000030B9F800303278DBB29A4233701D4BC7
:104AC00018BF0E4A1B781CBF012182F82B1113B1AD
:104AD0001C230B4A01E00B4A1C2312490748FFF72D
:104AE000F7FE002001F02CF9134B20221A6001235D
:104AF0002B702B78002BFCD1AFE700BFE894FF1F91
:104B0000EED6FF1F8094FF1F59490000C094FF1F7D
:104B100024DAFF1F0549000028DAFF1F3149000091
:104B2000C894FF1FCC94FF1FBA94FF1FCA94FF1FA5
:104B3000BE94FF1FBC94FF1F88F00F40B894FF1F66
:104B400084F00F40ECD6FF1F10B5084C0849094807
:104B5000224601F009FC084808490023036080232D
:104B600003712246BDE8104001F0FEBB4088FF1FE4
:104B700001490000E894FF1FC094FF1F4D49000049
:104B80007047FFFF024A0349034801F0EDBB00BF35
:104B90004088FF1F814B000028D7FF1F10B5204B16
:104BA0002048214960221A70E1225A701F4B204A86
:104BB0001C78204B082C01D1012402E00A2C03D1DF
:104BC00039240460132005E00C2C0CBF35243D244F
:104BD00004601220086014601860174B17491B7896
:104BE000174A03B101230B601360164B164A19785C
:104BF000164B012901D880210BE0042901D884211A
:104C000007E0082901D8852103E0102994BF8621F7
:104C10008721116019600E4B01221A7010BD00BF70
:104C20000040074008B003400CB00340148BFF1F46
:104C300008B00B400CB00B408DD7FF1F20B00340D5
:104C400020B00B40158BFF1F24B0034024B00B4055
:104C50008CD7FF1F094A136843F480531360084B35
:104C60001A78084B0AB1802200E0C0221A7080F343
:104C70000C00054B00B21880704700BF2C80044028
:104C80008DD7FF1F21C00C4000C00C4008B50B4D54
:104C90002C462B68580301D500F0A4FC2368590565
:104CA00001D500F02BFA23681A0501D500F0B4FAFB
:104CB0002368DB04EDD500F03DFBEAE734800440D7
:104CC00008B5FFF7E3FFFFFF014B10221A80704782
:104CD000002005407047FFFF094908B50B6868B11F
:104CE0006A461844A2F58052904206D301F048FB70
:104CF0000C2303604FF0FF3008BD0860184608BD64
:104D0000188BFF1F30B503460020B3FBF2F402FB03
:104D10001433092B94BF30333733DBB20B542346A3
:104D20000CB10130F1E70A1823465470C41AA342AB
:104D300006DACC5C1578CD5402F801490133F5E769
:104D4000084630BD044B054900221A600A60044A37
:104D5000106010221A60704714D0034004D0034042
:104D600000D0034020B11028034628BF102300E0E4
:104D70000123024A10781370704700BF1C8BFF1F7D
:104D8000212810B518D80D4B53F8302092F88042E6
:104D90003CB1012311B182F8803010BD82F800319E
:104DA00010BD03EBC0035B681A6811B142F0030247
:104DB00001E022F002021A6010BD00BFF884010079
:104DC000212810B52BD8164A02EBC00301295B68D5
:104DD000144601D004290FD154F83020012082F864
:104DE00080024FF4A2721A601A6804290CBF42F0C4
:104DF000200222F0200211E052F83000002280F858
:104E0000802211B94FF4807208E0022902D140F2E9
:104E1000031203E0032908BF4FF481721A6010BD2A
:104E2000F8840100282838B504464D4B0FD11B7873
:104E30000B2B03D8C3F10C03994003E00C2B1CBFD0
:104E40000C3B19410846BDE83840FFF703BF1A780C
:104E50000125002905FA02F301DC002102E08B4262
:104E600004D82946FFF78CFF294674E00338C3B203
:104E7000012B01D83B4B06E0202C01D0192C01D18D
:104E8000394B00E0394B1B6803FB0113D3401D284D
:104E900059D8DFE800F03F45392758581B215858AA
:104EA000585858585858582D330F15585158585865
:104EB0005858584B2E4A136040F244422D4B40E064
:104EC0002D4A136040F244422C4B3AE02C4A1360C6
:104ED00040F244422B4B34E02B4A136040F24442F0
:104EE0002A4B2EE02A4A136040F24442294B28E024
:104EF000294A136040F24442284B22E0284A1360BA
:104F000040F24442274B1CE0274A136040F24442DF
:104F1000264B16E0264A13604FF45172254B10E0E1
:104F2000254A13604FF45172244B0AE0244A13605F
:104F30004FF45172234B04E0234A1360234B4FF488
:104F400051721A6038BD7F29D4BF0021012120464B
:104F5000FFF716FF01212046BDE83840FFF730BFBC
:104F60001C8BFF1F0890034008800B400880034003
:104F70001080034004B004401880034008B004408F
:104F8000208003400CB004402880034010B004404F
:104F90003080034010C004403880034014C00440F7
:104FA0004080034018C00440488003401CC00440B7
:104FB0001090034030900440189003403490044017
:104FC00010800B4048A0044018800B404CA00440C7
:104FD00072B60B4B0B4A0C491B681268096862B623
:104FE000490102D5322B88BF0132C3F53B43302043
:104FF0007F33B3FBF0F34FF47A7000FB023070475D
:1050000018E000E090D7FF1F04ED00E038B504463B
:10501000FFF7DEFF054624B938BD013C0AD005F58F
:105020007A75FFF7D5FF401BB0F57A7FF5D201F016
:1050300055F9F6E738BDFFFF214B4FF4000210B5DC
:105040001A604FF080721A604FF000721A604FF0D1
:1050500080621A604FF000621A601A4B1A4A1B4CA9
:1050600000204BF6FF71186059602823136093608D
:105070001361936113629362136393630922226045
:1050800004F58054043420606160A360236144F817
:10509000042C04F5FE2420600D4801600D490B60CE
:1050A0008B600D4B1A60FFF779FD3220FFF7AEFFE2
:1050B00000F090FD4FF4AF70BDE81040FFF7A6BFC1
:1050C00008E100E0048003400C80034000800340BE
:1050D00008800B400C800B4000800B40054B18787B
:1050E000054B1A78C0B2D3B2984238BF4030C01ACC
:1050F000704700BF1AD8FF1F99D7FF1FF0B534497A
:105100000B7913F0300F2FD072B68B7D03F0FF04B4
:1051100023B9CB7940234B7462B625E062B62D48A3
:105120002D4A037812782D4FDBB2D2B20546581CB7
:105130004028CE7928BF00209042F6B21CBF3E54D2
:105140000346601E10F0FF04F1D1D9B22970244942
:10515000096849B1934236BFC2F140029B1A9B18BD
:10516000272BC4BF01230B70194AD178C9B20D0691
:105170001ED513791C061BD51A4B1B481D780378C6
:105180001A4EEDB2DBB2AB420AD00133402B28BF3E
:1051900000231479F45CE4B2D471147D072CF2D9A5
:1051A000DBB203700A4B1A79100644BF7C22DA7016
:1051B00049060CD5064B1A79520608D50C4A00212F
:1051C00011700C4A126802B111703C22DA70F0BD05
:1051D00000A006401AD8FF1F99D7FF1FDAD7FF1F7C
:1051E00094D7FF1F20D8FF1F1BD8FF1F9AD7FF1F80
:1051F00098D7FF1F1CD8FF1F054B1878054B1A784E
:10520000C0B2D3B2984238BF4030C01A704700BF16
:1052100092D8FF1F29D8FF1FF0B534490B7913F03E
:10522000300F2FD072B68B7D03F0FF0423B9CB79FA
:1052300040234B7462B625E062B62D482D4A0378B0
:1052400012782D4FDBB2D2B20546581C4028CE79D9
:1052500028BF00209042F6B21CBF3E540346601E99
:1052600010F0FF04F1D1D9B229702449096849B17D
:10527000934236BFC2F140029B1A9B18272BC4BF32
:1052800001230B70194AD178C9B20D061ED51379C6
:105290001C061BD51A4B1B481D7803781A4EEDB21D
:1052A000DBB2AB420AD00133282B28BF002314798C
:1052B000F45CE4B2D471147D072CF2D9DBB2037034
:1052C0000A4B1A79100644BF7C22DA7049060CD5C5
:1052D000064B1A79520608D50C4A002111700C4A67
:1052E000126802B111703C22DA70F0BD00B00640C5
:1052F00092D8FF1F29D8FF1F52D8FF1F24D8FF1FA5
:1053000098D8FF1F93D8FF1F2AD8FF1F28D8FF1F48
:1053100094D8FF1F054B1878054B1A78C0B2D3B24A
:10532000984238BF4030C01A704700BF0AD9FF1FEB
:10533000A1D8FF1F10B5284B1A79920620D527490E
:10534000DA790B782648013300783F2BC8BF002359
:10535000834218BF2348D2B21EBFC254DAB20A70C9
:10536000214A116861B1214A1278D2B2934236BF04
:10537000C2F140029B1A9B18272BC4BF01230B705C
:105380001549CA78D2B2140616D50B79180613D56A
:10539000174B164C18782378DBB2984202D16C2355
:1053A000CB7009E00133282B28BF00231148C05CD3
:1053B000DBB2C0B2C871237051060CD5064B1A7906
:1053C000520608D50C4A002111700C4A126802B12D
:1053D00011702C22DA7010BD00C006400AD9FF1FE0
:1053E000A1D8FF1FCAD8FF1F9CD8FF1F0BD9FF1FD2
:1053F00010D9FF1FA2D8FF1FA0D8FF1F0CD9FF1F75
:105400001FB572B6154B70221A70154A41211170E2
:105410000F2102F8011C80221A701A781206FCD59E
:10542000104B186862B6104B984298BF0A2301AC23
:1054300098BF58430A222146FFF764FC0B4A002319
:10544000E15C21B101330A2B22F8021BF8D1084A92
:1054500001335B00137004B010BD00BF00000240B8
:1054600007000240080002407F969800FA8BFF1F59
:10547000F88BFF1FF0B50C4C0C4E23780C4D43F00D
:10548000020706EBC70283F0010350602A782370FD
:10549000002A14BFC820882082F0010240EA01419E
:1054A0002A7046F83710F0BD7CD9FF1F0080FF1F1F
:1054B000F4D9FF1F431E032B10B510D872B6094A4A
:1054C00052F8230048B1416842F823100649048885
:1054D00031F81320121B21F8132062B610BD0020F2
:1054E00010BD00BF6CD9FF1FA0DAFF1F70B472B6E9
:1054F000174C184901231A1912F8012C12071DD54F
:105500009A00144E51F832502DB906EB431308306F
:105510005860114B09E042F0010251F832506DB968
:1055200006EBC203083058600C4B46F832300C4A88
:105530001378013B137062B670BC70470133052BC2
:10554000D9D162B6064B00221A7070BC00F0A2BB23
:10555000088601000080FF1F88004000C80040004E
:10556000EAD9FF1F431E032B10B532D8194A400158
:1055700040F01000104472B6174AD45C032C0BD8CC
:10558000DFE804F018040207052414E008300224C0
:1055900011E0083004240EE01048114A50F823406E
:1055A00014B940F8231002E052F82300416042F899
:1055B00023100DE00324D45410F0080F01F1080368
:1055C0000A88436014BFC823882343EA0243036068
:1055D00062B610BD0080FF1F28D9FF1FC0D9FF1F72
:1055E000D0D9FF1F2DE9F74FA64B1C78E4B214F079
:1055F000040F1D461CD0A44B1B78B3B1A34A1178ED
:1056000001F0FF0321B1013BDBB2137003B900BE0F
:105610009F4A117801F0FF0329B1013BDBB21370FF
:105620000BB900F0C9FC00F075FB964A0423137017
:1056300004F0080303F0FF02002B00F06082954B9A
:10564000954C1B78DBB21D094FEA930640F0DB81D5
:1056500004EBC603596854F83630C3F38303013BA7
:105660000C2B00F2CC81DFE813F088018801CA011D
:10567000CA01CA01CA01CA01CA01A801CA01CA01F4
:10568000CA010D00854D4B680A6885486B60854BE3
:1056900044F8363001232A60DFF83882037092B272
:1056A00040F2816000218242C8F800102161A161AE
:1056B00017D8B2F5D06F80F01F81B2F5817F00F06E
:1056C000D08006D8802A00F0B980822A00F0BA8003
:1056D00025E140F202339A4200F00081B2F5A06F5A
:1056E00014E0B2F5106F14D008D8B2F5086F40F08E
:1056F0001681654A6C4E1278327017E140F621131C
:105700009A4200F0378140F621239A4200F00B8143
:1057100005E15D4BAA781A700E46A219136A1F069E
:1057200003D5506A083800F0B5FA0836802EF4D157
:10573000DFF8A4915D4F0026CA4659F826004FEACB
:10574000860B30B14268009200F0A4FA009A10462D
:10575000F7E7574B574A4AF80B004BF803005BF842
:10576000020040B141680192009100F093FA009963
:10577000019A0846F5E7504B42F80B0023F8160053
:105780003B784E4A023B4BF80200032B07D8DFE878
:1057900003F002040204002300E001233B70013601
:1057A000042E07F10107C8D1454B464E3D4F00225C
:1057B0001A704FF0010B9946434A0BEB06015A440D
:1057C00011F8011C920011F0080F11704FEA8B0ABA
:1057D00024D000F041FA38B104EB4B1208303B4BB7
:1057E000506044F83A3006E099F8002044F83A0056
:1057F000013289F8002000F02FFA4AF0010230B19E
:1058000004EBC2010830486044F8327006E044F806
:10581000320099F80020013289F800204AF0020194
:105820000BF1010B4AF0030A0022BBF1050F44F80B
:10583000312044F83A20BFD1134621E01A4E31708E
:10584000717072E0AA8802F07F02042A67D8164EAF
:105850009200317071701E498A5C940765D533706F
:1058600063E0AA8802F07F02042A58D86B88002BD4
:1058700055D11749920011440A7822F002020A70A9
:105880001E4653E080200740F3D9FF1F7DD9FF1F3C
:1058900038DAFF1F902007400080FF1FE0D9FF1F6C
:1058A000F4D9FF1FC8004000EBD9FF1F28D9FF1F04
:1058B00018D9FF1FC0D9FF1FA0DAFF1FD0D9FF1FC3
:1058C000EAD9FF1F0886010030C801108800400097
:1058D000C020074014D9FF1F6CD9FF1FAA8802F00F
:1058E0007F02042A1BD86B88CBB9A04992001144CF
:1058F0000A7842F00202C2E76A88A9889C4B5E6877
:105900006EB11888904208D15888884205D1120A91
:10591000032A0CBF33781B8908E00C33EFE7934B65
:105920000F221A7026E00023AAE70223EC889C428B
:1059300028BF1C46402C254628BF40253046294616
:10594000FFF798FD641B2E4403D1402D12D125464C
:1059500003E0402C254628BF402530462946FFF766
:1059600089FD641B2E4401D1402D03D1814BC8F821
:1059700000601C800122804B40E0804B80481A6808
:10598000824216D15A687F4B9A4212D10B78A92BCA
:105990000FD14B78452B0CD18B78C22B09D1CB780A
:1059A0006B2B06D1784B0021052208461A70FFF7B1
:1059B00061FD764B44F8363021E0754F3E68A6B164
:1059C000DFF8B081B8F80040402C254628BF4025BC
:1059D00030462946FFF74EFD601B80B2A8F8000054
:1059E00008B9402D00D170193860644B1A88B2F59F
:1059F000A06F04D100225A709A78664B1A705E4BE1
:105A000001221A7077E004EBC607013D7A6803F0C3
:105A10000803A2F10800EDB203F0FF0E002B36D010
:105A200000F038F95C485D4A50F82510E9B14B6840
:105A300040F8253001F108037B60535D032B0BD840
:105A4000DFE803F002040608032304E0022302E077
:105A5000052300E00423535517F0080F0A8814BFEC
:105A6000C823882343EA024343E0535D032B07D84E
:105A7000DFE803F041410204002306E0012304E0D3
:105A800017F0080F14BF03230223535533E054F8D3
:105A900036301B0C99B222F8081C23B3404B22F875
:105AA00006EC42F804EC53F82520DFF824E112B9A3
:105AB00043F8250002E05EF825305860394A4EF878
:105AC000250032F815300B4422F8153000F0C4F8E8
:105AD00010B10830786006E0334A44F83600137895
