:100000000C9434000C9451000C9451000C94510049
:100010000C9451000C94D3040C9451000C94510096
:100020000C9451000C9451000C9451000C9451000C
:100030000C9451000C9451000C94B4040C94510095
:100040000C9451000C9451000C9451000C945100EC
:100050000C9451000C942E040C9451000C945100FB
:100060000C9451000C94510011241FBECFEFD8E026
:10007000DEBFCDBF11E0A0E0B1E0E0E4FBE002C0F4
:1000800005900D92A230B107D9F721E0A2E0B1E0CE
:1000900001C01D92AB33B207E1F70E94EE040C944D
:1000A0009E050C9400008EE284B917B880EC8BB9E1
:1000B0008FE08AB908952F923F924F925F926F928C
:1000C0007F928F929F92AF92BF92CF92DF92EF92E8
:1000D000FF920F931F93CF93DF93CDB7DEB7609757
:1000E0000FB6F894DEBF0FBECDBFF89480911F010C
:1000F000823009F438C1E8F4813009F44EC07894B4
:1001000060960FB6F894DEBF0FBECDBFDF91CF91E2
:100110001F910F91FF90EF90DF90CF90BF90AF9025
:100120009F908F907F906F905F904F903F902F9017
:100130000895833009F439C2843009F780910601AB
:10014000882309F46DC24091170150911801609104
:10015000190170911A018091130190911401A091DD
:100160001501B091160184179507A607B70708F483
:100170004EC210921701109218011092190110929C
:100180001A0110921F018BB18F608BB9299A1092BE
:10019000230181E0809321013AC0809106018823E8
:1001A00009F46BC0009117011091180120911901F9
:1001B00030911A01409107015091080160910901A5
:1001C00070910A018FEF9FEFAFEFBFE75C016D0108
:1001D000A01AB10AC20AD30A9601850104171507AD
:1001E0002607370748F58093170190931801A093CD
:1001F0001901B0931A0180912401882309F496C053
:1002000084E080931F018BB18F608BB95B988091E4
:10021000170190911801A0911901B0911A01880F4E
:10022000991FAA1FBB1F80931B0190931C01A093D1
:100230001D01B0931E0163CF8091070190910801C9
:10024000A0910901B0910A01409117015091180144
:100250006091190170911A01B695A79597958795A8
:10026000840F951FA61FB71F809317019093180145
:10027000A0931901B0931A01CACF809017019090F2
:100280001801A0901901B0901A012091300130910D
:1002900031016FEF7FEF8FEF9FE9681979098A09C4
:1002A0009B092C5F3F4F220F331F50E040E00E941C
:1002B0003105A3E0B0E00E947205DC01CB0112E041
:1002C000B695A795979587951A95D1F780930201D2
:1002D00090930301A0930401B093050100911701CD
:1002E000109118012091190130911A0144244A9467
:1002F000542C642C4FE7742E53014201801A910A4A
:10030000A20AB30A8C019D01015011092F4F3F4FE2
:10031000081519052A053B0588F0409217015092EF
:1003200018016092190170921A0165CF82E08093E2
:100330001F018BB18F608BB95A9869CF009117015B
:10034000109118012091190130911A01080F191FFD
:100350002A1F3B1F009317011093180120931901C6
:1003600030931A0154CF80910601882309F47BC091
:100370008091170190911801A0911901B0911A0173
:1003800040910B0150910C0160910D0170910E0193
:10039000C0900F01D0901001E0901101F090120177
:1003A000C982DA82EB82FC825C016D01E12CF12CC6
:1003B00087018987BA86AB87DC86ED86FE860F8744
:1003C000188B1A012B019C01AD0160E070E080E008
:1003D00090E051016201E12CF12C00E010E00E945C
:1003E0007D0529803A804B805C80569447943794F1
:1003F0002794510162010E948605E4F480910F0167
:1004000090911001A0911101B0911201B695A7959C
:10041000979587958093170190931801A0931901E0
:10042000B0931A0183E080931F018BB18F608BB969
:100430005998EDCE40910B0150910C0160910D0146
:1004400070910E018091170190911801A0911901EE
:10045000B0911A017695679557954795841B950B32
:10046000A60BB70B01CF6091170170911801809115
:10047000190190911A0140900F0150901001609065
:100480001101709012014091320150913301769424
:1004900067945794479464197509860997099A01D6
:1004A000220F331F240F351F245F3F4F50E040E0E1
:1004B0000E943105ACE0B0E00E9472052AE030E015
:1004C00040E050E00E94310529013A0140920201CA
:1004D000509203016092040170920501809117010E
:1004E00090911801A0911901B0911A0140910F014A
:1004F0005091100160911101709112016C017D0108
:1005000000E010E098018987DA86AB87FC860D87CA
:100510001E872F87388B769567955795479541505D
:1005200051096F4F7F4F5A016B0129853A854B85E1
:100530005C8560E070E080E090E0E12CF12C00E070
:1005400010E00E947D0563015201E12CF12C87012E
:100550004982BA826B82DC82ED82FE820F83188729
:10056000E12CF12C00E010E0440C551C661C771CBB
:100570000E9486056CF48091170190911801A0915A
:100580001901B0911A0184199509A609B70942CF3A
:100590008091170190911801A0911901B0911A0151
:1005A00084199509A609B7095FCE80910F01909132
:1005B0001001A0911101B0911201B695A7959795E0
:1005C00087958093170190931801A0931901B09318
:1005D0001A018091170190911801A0911901B09111
:1005E0001A01880F991FAA1FBB1F80931B019093AC
:1005F0001C01A0931D01B0931E014C9B80CD84E093
:1006000080931F018BB18F608BB95B9878CD40913F
:10061000130150911401609115017091160112CFD0
:1006200060911701709118018091190190911A0140
:1006300040913601509137019A01220F331F240F48
:10064000351F245F3F4F50E040E00E943105A3E09A
:10065000B0E00E9472052B013C0176946794579498
:1006600047944092020150920301609204017092FB
:100670000501009117011091180120911901309185
:100680001A014FEF440E541E611C711C0415150510
:100690002605370508F46DCD4090170150901801DC
:1006A0006090190170901A019B01AC0164E05695AD
:1006B0004795379527956A95D1F7A2E1B0E00E945A
:1006C0007205461A570A680A790A40921701509231
:1006D00018016092190170921A0199CD80E48093FB
:1006E0007C0087E880937A0080E180936D0084E04D
:1006F0008093680081E58CBD089510922F01ECE78E
:10070000F0E0808180838BB18F608BB92A9A089545
:10071000CF92DF92EF92FF920F931F93CF93DF93CD
:10072000E7E2F1E020813181809138019091390137
:10073000280F391FC0E3D1E0398328832281338118
:10074000280F391F3B832A83248135813D832C83E5
:1007500026813781820F931F209125013091260138
:10076000820F931F9F838E83288139812E5F3F4F95
:100770003695279550E040E0C12CD12CE12C90E239
:10078000F92EC701B6010E94530507E011E0F801F8
:1007900020833183428353832A813B812E5F3F4FE5
:1007A0003695279550E040E0C701B6010E945305F9
:1007B000F80124833583468357838C819D81B0E083
:1007C000A0E056E1880F991FAA1FBB1F5A95D1F7C9
:1007D00080879187A287B3872E813F812E5F3F4F0D
:1007E0003695279550E040E0C701B6010E945305B9
:1007F000F8012487358746875787DF91CF911F916E
:100800000F91FF90EF90DF90CF900895F8942A9881
:1008100080911B0190911C01A0911D01B0911E01BE
:1008200024E1B695A795979587952A95D1F790637A
:100830009EBD0DB407FEFDCF9EB58EBD0DB407FE67
:10084000FDCF8EB52A9A7894089582E084BD94E015
:1008500095BD96E297BD80936E0008951F920F920A
:100860000FB60F9211242F933F934F935F936F9383
:100870007F938F939F93AF93BF93EF93FF93809159
:100880002F01823009F452C088F58823E9F18130C4
:1008900009F443C00E94880380912F018F5F863046
:1008A00008F05FC080932F0180917C00807F80934F
:1008B0007C0080917C0090912F01892B80937C009B
:1008C00080917A00806480937A00FF91EF91BF91CC
:1008D000AF919F918F917F916F915F914F913F91D8
:1008E0002F910F900FBE0F901F901895843081F1BB
:1008F00030F1853079F6809178009091790090936D
:100900002C0180932B01C6CF8091780090917900C3
:100910009093260180932501BDCF8091780090911E
:1009200079009093390180933801B4CF8091780099
:100930009091790090932A0180932901ABCF809107
:100940007800909179009093280180932701A2CF9D
:10095000809178009091790090932E0180932D01E1
:1009600099CF10922F01A0CF1F920F920FB60F9226
:1009700011248F9380912101882361F080912301BC
:100980008F5F8093230180912301893018F029988B
:100990001092210181E0809320018F910F900FBE72
:1009A0000F901F9018951F920F920FB60F9211245F
:1009B0008F939F9389B190910001982794FF05C070
:1009C00084FD03C091E090933A01809300019F91D0
:1009D0008F910F900FBE0F901F901895F8940E9462
:1009E00053000E946E030E9425040E947D037894A8
:1009F00080917A00886080937A0080917A00806488
:100A000080937A00C1E080913A01882341F01092EE
:100A10003A018BB18F608BB95898C0931F018091B8
:100A20002001882381F3109220014F9B14C0109263
:100A3000240180912401909122019813C0931F01F9
:100A4000809322014E9B0AC0109206010E945B0017
:100A50000E940604D8CFC0932401EBCFC0930601B7
:100A6000F5CFA1E21A2EAA1BBB1BFD010DC0AA1FC8
:100A7000BB1FEE1FFF1FA217B307E407F50720F007
:100A8000A21BB30BE40BF50B661F771F881F991F82
:100A90001A9469F760957095809590959B01AC01CB
:100AA000BD01CF010895052E97FB1EF400940E940E
:100AB0006A0557FD07D00E94310507FC03D04EF4AC
:100AC0000C946A0550954095309521953F4F4F4FB6
:100AD0005F4F089590958095709561957F4F8F4FEA
:100AE0009F4F08950E948F05A59F900DB49F900D74
:100AF000A49F800D911D112408952A193B094C09CA
:100B00005D096E097F09800B910B08952A153B053D
:100B10004C055D056E057F05800791070895A29F2E
:100B2000B001B39FC001A39F700D811D1124911DC1
:100B3000B29F700D811D1124911D0895F894FFCF6F
:020B40000200B1
:00000001FF
